{
	"data": {
		"bytecode": {
			"linkReferences": {},
			"object": "60806040525f600155348015610013575f80fd5b5060015f908155600280546001600160a01b031916331790556003556120c98061003c5f395ff3fe608060405260043610610105575f3560e01c80636f9fb98a11610092578063d0e30db011610062578063d0e30db0146102c3578063d8546f49146102cb578063d8d79700146102ea578063da76d5cd146102fe578063dd51babf1461031d575f80fd5b80636f9fb98a1461023d578063893d20e8146102515780639a43da7314610278578063cd57187414610297575f80fd5b80631bd2eeee116100d85780631bd2eeee146101925780633c69c657146101b15780634865bed2146101d057806361f05b05146101ef5780636cb4b69d1461021b575f80fd5b8063079eaf34146101095780630a4115271461012a57806313af40351461015f578063183ff0851461017e575b5f80fd5b348015610114575f80fd5b5061012861012336600461186f565b610331565b005b348015610135575f80fd5b506101496101443660046118e9565b610501565b60405161015691906119eb565b60405180910390f35b34801561016a575f80fd5b50610128610179366004611a4d565b6107e2565b348015610189575f80fd5b5061012861082e565b34801561019d575f80fd5b506101286101ac366004611a73565b610971565b3480156101bc575f80fd5b506101286101cb366004611a73565b610b39565b3480156101db575f80fd5b506101286101ea366004611a8a565b610c5c565b3480156101fa575f80fd5b5061020e610209366004611a73565b610e1a565b6040516101569190611b02565b348015610226575f80fd5b5061022f611005565b604051908152602001610156565b348015610248575f80fd5b5061022f611038565b34801561025c575f80fd5b506002546040516001600160a01b039091168152602001610156565b348015610283575f80fd5b50610128610292366004611b14565b611069565b3480156102a2575f80fd5b506102b66102b1366004611a4d565b611152565b6040516101569190611b3e565b61012861133c565b3480156102d6575f80fd5b506101286102e5366004611bbe565b6113be565b3480156102f5575f80fd5b506101286114f1565b348015610309575f80fd5b50610128610318366004611a73565b61162b565b348015610328575f80fd5b5060015461022f565b61033a3361177d565b156103815760405162461bcd60e51b81526020600482015260126024820152711d5cd95c88185b1c9958591e48195e1a5cdd60721b60448201526064015b60405180910390fd5b6040518060e00160405280336001600160a01b0316815260200185858080601f0160208091040260200160405190810160405280939291908181526020018383808284375f92019190915250505090825250604080516020601f8601819004810282018101909252848152918101919085908590819084018382808284375f9201829052509385525050506020808301829052604080840183905260608401839052608090930182905233825260048152919020825181546001600160a01b0319166001600160a01b039091161781559082015160018201906104649082611cd8565b50604082015160028201906104799082611cd8565b5060608201516003820155608082015160048083019190915560a0830151600583015560c090920151600690910155335f818152602092909252604091829020915190917f8eab1db142a914aff8b515eedb9177bd7effaef6d714c41e30bdf15206778607916104f3916001810191600290910190611e11565b60405180910390a250505050565b600180546060915f91905b81811161056f578460028111156105255761052561194c565b5f8281526005602052604090206003015460ff16600281111561054a5761054a61194c565b0361055d578261055981611e52565b9350505b8061056781611e52565b91505061050c565b505f8267ffffffffffffffff81111561058a5761058a611c40565b6040519080825280602002602001820160405280156105c357816020015b6105b06117e7565b8152602001906001900390816105a85790505b505f9350905060015b8281116107d9578560028111156105e5576105e561194c565b5f8281526005602052604090206003015460ff16600281111561060a5761060a61194c565b036107c75760055f8281526020019081526020015f206040518060c00160405290815f820154815260200160018201805461064490611c54565b80601f016020809104026020016040519081016040528092919081815260200182805461067090611c54565b80156106bb5780601f10610692576101008083540402835291602001916106bb565b820191905f5260205f20905b81548152906001019060200180831161069e57829003601f168201915b505050505081526020016002820180546106d490611c54565b80601f016020809104026020016040519081016040528092919081815260200182805461070090611c54565b801561074b5780601f106107225761010080835404028352916020019161074b565b820191905f5260205f20905b81548152906001019060200180831161072e57829003601f168201915b5050509183525050600382015460209091019060ff1660028111156107725761077261194c565b60028111156107835761078361194c565b8152602001600482015481526020016005820154815250508285815181106107ad576107ad611e6a565b602002602001018190525083806107c390611e52565b9450505b806107d181611e52565b9150506105cc565b50949350505050565b6002546001600160a01b0316331461080c5760405162461bcd60e51b815260040161037890611e7e565b600280546001600160a01b0319166001600160a01b0392909216919091179055565b6108373361177d565b61087a5760405162461bcd60e51b81526020600482015260146024820152737573657220646f6573206e6f742065786973742160601b6044820152606401610378565b335f90815260046020526040812060030154908190036108cc5760405162461bcd60e51b815260206004820152600d60248201526c139bc818d85c881c995b9d1959609a1b6044820152606401610378565b335f908152600460205260408120600601546108e89042611ec3565b5f83815260056020526040902060040154909150610906828261179c565b335f8181526004602090815260408083206005808201969096556003808201859055600690910184905588845294909152808220909301805460ff19169055915185927fa864a8b988e604bb05d6ce75d53efabb5620c45b15380b7bd0c51dcfa71dda0391a3505050565b61097a3361177d565b6109bd5760405162461bcd60e51b81526020600482015260146024820152737573657220646f6573206e6f742065786973742160601b6044820152606401610378565b5f8181526005602052604081206003015460ff1660028111156109e2576109e261194c565b14610a275760405162461bcd60e51b815260206004820152601560248201527420436172206973206e6f7420617661696c61626c6560581b6044820152606401610378565b335f9081526004602052604090206003015415610a785760405162461bcd60e51b815260206004820152600f60248201526e416c72656164792052656e7465642160881b6044820152606401610378565b335f9081526004602052604090206005015415610ad75760405162461bcd60e51b815260206004820152601860248201527f436c65617220796f752070726576696f757320646562742100000000000000006044820152606401610378565b335f81815260046020908152604080832042600682015560039081018690558584526005909252808320909101805460ff19166001179055518392917ff65ce03794824579bcd95d8c6743ffc10c4a5e7405fb3876c1abf81453105c4291a350565b6002546001600160a01b03163314610b635760405162461bcd60e51b815260040161037890611e7e565b610b6b6117bf565b806003541015610bb45760405162461bcd60e51b8152602060048201526014602482015273496e73756666696369656e742042616c616e636560601b6044820152606401610378565b6002546040515f916001600160a01b03169083908381818185875af1925050503d805f8114610bfe576040519150601f19603f3d011682016040523d82523d5f602084013e610c03565b606091505b5050905080610c465760405162461bcd60e51b815260206004820152600f60248201526e151c985b9cd9995c8811985a5b1959608a1b6044820152606401610378565b50600380548290039055610c5960015f55565b50565b6002546001600160a01b03163314610c865760405162461bcd60e51b815260040161037890611e7e565b60018054905f610c968380611ed6565b90915550506001546040805160c08101825282815281516020601f8a01819004810282018101909352888152909180830191908a908a90819084018382808284375f92019190915250505090825250604080516020601f8901819004810282018101909252878152918101919088908890819084018382808284375f9201829052509385525050506020808301829052604080840188905260609093018690528482526005815291902082518155908201516001820190610d579082611cd8565b5060408201516002820190610d6c9082611cd8565b50606082015160038201805460ff19166001836002811115610d9057610d9061194c565b0217905550608082015160048083019190915560a0909201516005918201555f838152602082905260409081902060038101549381015492810154915185947fbf756a5243218b4ab0278d26606628935e8f9b9c6035a2faa62a4ae4505a099a94610e099460018501946002019360ff90931692611ee9565b60405180910390a250505050505050565b610e226117e7565b5f828152600560205260408120549003610e735760405162461bcd60e51b815260206004820152601260248201527110d85c88191bd95cc81b9bdd08195e1a5cdd60721b6044820152606401610378565b60055f8381526020019081526020015f206040518060c00160405290815f8201548152602001600182018054610ea890611c54565b80601f0160208091040260200160405190810160405280929190818152602001828054610ed490611c54565b8015610f1f5780601f10610ef657610100808354040283529160200191610f1f565b820191905f5260205f20905b815481529060010190602001808311610f0257829003601f168201915b50505050508152602001600282018054610f3890611c54565b80601f0160208091040260200160405190810160405280929190818152602001828054610f6490611c54565b8015610faf5780601f10610f8657610100808354040283529160200191610faf565b820191905f5260205f20905b815481529060010190602001808311610f9257829003601f168201915b5050509183525050600382015460209091019060ff166002811115610fd657610fd661194c565b6002811115610fe757610fe761194c565b81526004820154602082015260059091015460409091015292915050565b6002545f906001600160a01b031633146110315760405162461bcd60e51b815260040161037890611e7e565b5060035490565b6002545f906001600160a01b031633146110645760405162461bcd60e51b815260040161037890611e7e565b504790565b6002546001600160a01b031633146110935760405162461bcd60e51b815260040161037890611e7e565b5f8281526005602052604081205490036110e45760405162461bcd60e51b815260206004820152601260248201527118d85c88191bd95cc81b9bdd08195e1a5cdd60721b6044820152606401610378565b5f828152600560205260409020600301805482919060ff191660018360028111156111115761111161194c565b0217905550817fa2038badc9c4004a10f632052c54b0011bb307c2cadc65f22071f61ffd106633826040516111469190611f30565b60405180910390a25050565b6111966040518060e001604052805f6001600160a01b0316815260200160608152602001606081526020015f81526020015f81526020015f81526020015f81525090565b61119f8261177d565b6111bb5760405162461bcd60e51b815260040161037890611f3e565b6001600160a01b038083165f90815260046020908152604091829020825160e0810190935280549093168252600183018054929392918401916111fd90611c54565b80601f016020809104026020016040519081016040528092919081815260200182805461122990611c54565b80156112745780601f1061124b57610100808354040283529160200191611274565b820191905f5260205f20905b81548152906001019060200180831161125757829003601f168201915b5050505050815260200160028201805461128d90611c54565b80601f01602080910402602001604051908101604052809291908181526020018280546112b990611c54565b80156113045780601f106112db57610100808354040283529160200191611304565b820191905f5260205f20905b8154815290600101906020018083116112e757829003601f168201915b505050505081526020016003820154815260200160048201548152602001600582015481526020016006820154815250509050919050565b6113453361177d565b6113615760405162461bcd60e51b815260040161037890611f3e565b335f9081526004602081905260408220018054349290611382908490611ed6565b909155505060405134815233907fe1fffcc4923d04b559f4d29a8bfc6cda04eb5b0d3c460751c2402c5c5cc9109c9060200160405180910390a2565b6002546001600160a01b031633146113e85760405162461bcd60e51b815260040161037890611e7e565b5f8781526005602052604081205490036114445760405162461bcd60e51b815260206004820181905260248201527f436172207769746820676976656e20494420646f6573206e6f742065786973746044820152606401610378565b5f87815260056020526040902085156114685760018101611466878983611f6b565b505b831561147f576002810161147d858783611f6b565b505b821561148d57600481018390555b811561149b57600581018290555b877f10e3e3a462a9f4c167783d47719e646c87b1a773b083fb5eef04a076e887079c8260010183600201846004015485600501546040516114df9493929190612025565b60405180910390a25050505050505050565b6114fa3361177d565b6115165760405162461bcd60e51b815260040161037890611f3e565b335f90815260046020819052604090912060058101549101548161156f5760405162461bcd60e51b815260206004820152601060248201526f1d5cd95c881a185cc81b9bc81919589d60821b6044820152606401610378565b818110156115b65760405162461bcd60e51b8152602060048201526014602482015273496e73756666696369656e742062616c616e636560601b6044820152606401610378565b335f90815260046020819052604082200180548490039055600380548492906115e0908490611ed6565b9091555050335f8181526004602052604080822060050191909155517f3a2d0e41c506b136330c6e5e0295ccbf0966daece99bfe7c89020cc01dbfb8d6906111469085815260200190565b6116336117bf565b61163c3361177d565b6116585760405162461bcd60e51b815260040161037890611f3e565b335f90815260046020819052604090912001548181116116b15760405162461bcd60e51b8152602060048201526014602482015273496e73756666696369656e742062616c616e636560601b6044820152606401610378565b60405190829003905f90339084908381818185875af1925050503d805f81146116f5576040519150601f19603f3d011682016040523d82523d5f602084013e6116fa565b606091505b505090508061173d5760405162461bcd60e51b815260206004820152600f60248201526e151c985b9cd9995c8811985a5b1959608a1b6044820152606401610378565b60405183815233907fddc398b321237a8d40ac914388309c2f52a08c134e4dc4ce61e32f57cb7d80f19060200160405180910390a25050610c5960015f55565b6001600160a01b039081165f9081526004602052604090205416151590565b5f806117a9603c8561205d565b90506117b5838261207c565b9150505b92915050565b60025f54036117e157604051633ee5aeb560e01b815260040160405180910390fd5b60025f55565b6040518060c001604052805f815260200160608152602001606081526020015f60028111156118185761181861194c565b81526020015f81526020015f81525090565b5f8083601f84011261183a575f80fd5b50813567ffffffffffffffff811115611851575f80fd5b602083019150836020828501011115611868575f80fd5b9250929050565b5f805f8060408587031215611882575f80fd5b843567ffffffffffffffff80821115611899575f80fd5b6118a58883890161182a565b909650945060208701359150808211156118bd575f80fd5b506118ca8782880161182a565b95989497509550505050565b8035600381106118e4575f80fd5b919050565b5f602082840312156118f9575f80fd5b611902826118d6565b9392505050565b5f81518084525f5b8181101561192d57602081850181015186830182015201611911565b505f602082860101526020601f19601f83011685010191505092915050565b634e487b7160e01b5f52602160045260245ffd5b6003811061197c57634e487b7160e01b5f52602160045260245ffd5b9052565b805182525f602082015160c0602085015261199e60c0850182611909565b9050604083015184820360408601526119b78282611909565b91505060608301516119cc6060860182611960565b506080830151608085015260a083015160a08501528091505092915050565b5f60208083016020845280855180835260408601915060408160051b8701019250602087015f5b82811015611a4057603f19888603018452611a2e858351611980565b94509285019290850190600101611a12565b5092979650505050505050565b5f60208284031215611a5d575f80fd5b81356001600160a01b0381168114611902575f80fd5b5f60208284031215611a83575f80fd5b5035919050565b5f805f805f8060808789031215611a9f575f80fd5b863567ffffffffffffffff80821115611ab6575f80fd5b611ac28a838b0161182a565b90985096506020890135915080821115611ada575f80fd5b50611ae789828a0161182a565b979a9699509760408101359660609091013595509350505050565b602081525f6119026020830184611980565b5f8060408385031215611b25575f80fd5b82359150611b35602084016118d6565b90509250929050565b602080825282516001600160a01b03168282015282015160e060408301525f90611b6c610100840182611909565b90506040840151601f19848303016060850152611b898282611909565b91505060608401516080840152608084015160a084015260a084015160c084015260c084015160e08401528091505092915050565b5f805f805f805f60a0888a031215611bd4575f80fd5b87359650602088013567ffffffffffffffff80821115611bf2575f80fd5b611bfe8b838c0161182a565b909850965060408a0135915080821115611c16575f80fd5b50611c238a828b0161182a565b989b979a5095989597966060870135966080013595509350505050565b634e487b7160e01b5f52604160045260245ffd5b600181811c90821680611c6857607f821691505b602082108103611c8657634e487b7160e01b5f52602260045260245ffd5b50919050565b601f821115611cd357805f5260205f20601f840160051c81016020851015611cb15750805b601f840160051c820191505b81811015611cd0575f8155600101611cbd565b50505b505050565b815167ffffffffffffffff811115611cf257611cf2611c40565b611d0681611d008454611c54565b84611c8c565b602080601f831160018114611d39575f8415611d225750858301515b5f19600386901b1c1916600185901b178555611d90565b5f85815260208120601f198616915b82811015611d6757888601518255948401946001909101908401611d48565b5085821015611d8457878501515f19600388901b60f8161c191681555b505060018460011b0185555b505050505050565b5f8154611da481611c54565b808552602060018381168015611dc15760018114611ddb57611e06565b60ff1985168884015283151560051b880183019550611e06565b865f52825f205f5b85811015611dfe5781548a8201860152908301908401611de3565b890184019650505b505050505092915050565b604081525f611e236040830185611d98565b8281036020840152611e358185611d98565b95945050505050565b634e487b7160e01b5f52601160045260245ffd5b5f60018201611e6357611e63611e3e565b5060010190565b634e487b7160e01b5f52603260045260245ffd5b60208082526025908201527f6f6e6c7920746865206f776e65722063616e2063616c6c20746869732066756e60408201526431ba34b7b760d91b606082015260800190565b818103818111156117b9576117b9611e3e565b808201808211156117b9576117b9611e3e565b60a081525f611efb60a0830188611d98565b8281036020840152611f0d8188611d98565b915050611f1d6040830186611960565b6060820193909352608001529392505050565b602081016117b98284611960565b6020808252601390820152721d5cd95c88191bd95cc81b9bdd08195e1a5cdd606a1b604082015260600190565b67ffffffffffffffff831115611f8357611f83611c40565b611f9783611f918354611c54565b83611c8c565b5f601f841160018114611fc8575f8515611fb15750838201355b5f19600387901b1c1916600186901b178355611cd0565b5f83815260208120601f198716915b82811015611ff75786850135825560209485019460019092019101611fd7565b5086821015612013575f1960f88860031b161c19848701351681555b505060018560011b0183555050505050565b608081525f6120376080830187611d98565b82810360208401526120498187611d98565b604084019590955250506060015292915050565b5f8261207757634e487b7160e01b5f52601260045260245ffd5b500490565b80820281158282048414176117b9576117b9611e3e56fea26469706673582212209c6a1f86bcb9895e065f82402d322ce582eb5e7c3138fd9b2cc8352451206e5464736f6c63430008160033",
			"opcodes": "PUSH1 0x80 PUSH1 0x40 MSTORE PUSH0 PUSH1 0x1 SSTORE CALLVALUE DUP1 ISZERO PUSH2 0x13 JUMPI PUSH0 DUP1 REVERT JUMPDEST POP PUSH1 0x1 PUSH0 SWAP1 DUP2 SSTORE PUSH1 0x2 DUP1 SLOAD PUSH1 0x1 PUSH1 0x1 PUSH1 0xA0 SHL SUB NOT AND CALLER OR SWAP1 SSTORE PUSH1 0x3 SSTORE PUSH2 0x20C9 DUP1 PUSH2 0x3C PUSH0 CODECOPY PUSH0 RETURN INVALID PUSH1 0x80 PUSH1 0x40 MSTORE PUSH1 0x4 CALLDATASIZE LT PUSH2 0x105 JUMPI PUSH0 CALLDATALOAD PUSH1 0xE0 SHR DUP1 PUSH4 0x6F9FB98A GT PUSH2 0x92 JUMPI DUP1 PUSH4 0xD0E30DB0 GT PUSH2 0x62 JUMPI DUP1 PUSH4 0xD0E30DB0 EQ PUSH2 0x2C3 JUMPI DUP1 PUSH4 0xD8546F49 EQ PUSH2 0x2CB JUMPI DUP1 PUSH4 0xD8D79700 EQ PUSH2 0x2EA JUMPI DUP1 PUSH4 0xDA76D5CD EQ PUSH2 0x2FE JUMPI DUP1 PUSH4 0xDD51BABF EQ PUSH2 0x31D JUMPI PUSH0 DUP1 REVERT JUMPDEST DUP1 PUSH4 0x6F9FB98A EQ PUSH2 0x23D JUMPI DUP1 PUSH4 0x893D20E8 EQ PUSH2 0x251 JUMPI DUP1 PUSH4 0x9A43DA73 EQ PUSH2 0x278 JUMPI DUP1 PUSH4 0xCD571874 EQ PUSH2 0x297 JUMPI PUSH0 DUP1 REVERT JUMPDEST DUP1 PUSH4 0x1BD2EEEE GT PUSH2 0xD8 JUMPI DUP1 PUSH4 0x1BD2EEEE EQ PUSH2 0x192 JUMPI DUP1 PUSH4 0x3C69C657 EQ PUSH2 0x1B1 JUMPI DUP1 PUSH4 0x4865BED2 EQ PUSH2 0x1D0 JUMPI DUP1 PUSH4 0x61F05B05 EQ PUSH2 0x1EF JUMPI DUP1 PUSH4 0x6CB4B69D EQ PUSH2 0x21B JUMPI PUSH0 DUP1 REVERT JUMPDEST DUP1 PUSH4 0x79EAF34 EQ PUSH2 0x109 JUMPI DUP1 PUSH4 0xA411527 EQ PUSH2 0x12A JUMPI DUP1 PUSH4 0x13AF4035 EQ PUSH2 0x15F JUMPI DUP1 PUSH4 0x183FF085 EQ PUSH2 0x17E JUMPI JUMPDEST PUSH0 DUP1 REVERT JUMPDEST CALLVALUE DUP1 ISZERO PUSH2 0x114 JUMPI PUSH0 DUP1 REVERT JUMPDEST POP PUSH2 0x128 PUSH2 0x123 CALLDATASIZE PUSH1 0x4 PUSH2 0x186F JUMP JUMPDEST PUSH2 0x331 JUMP JUMPDEST STOP JUMPDEST CALLVALUE DUP1 ISZERO PUSH2 0x135 JUMPI PUSH0 DUP1 REVERT JUMPDEST POP PUSH2 0x149 PUSH2 0x144 CALLDATASIZE PUSH1 0x4 PUSH2 0x18E9 JUMP JUMPDEST PUSH2 0x501 JUMP JUMPDEST PUSH1 0x40 MLOAD PUSH2 0x156 SWAP2 SWAP1 PUSH2 0x19EB JUMP JUMPDEST PUSH1 0x40 MLOAD DUP1 SWAP2 SUB SWAP1 RETURN JUMPDEST CALLVALUE DUP1 ISZERO PUSH2 0x16A JUMPI PUSH0 DUP1 REVERT JUMPDEST POP PUSH2 0x128 PUSH2 0x179 CALLDATASIZE PUSH1 0x4 PUSH2 0x1A4D JUMP JUMPDEST PUSH2 0x7E2 JUMP JUMPDEST CALLVALUE DUP1 ISZERO PUSH2 0x189 JUMPI PUSH0 DUP1 REVERT JUMPDEST POP PUSH2 0x128 PUSH2 0x82E JUMP JUMPDEST CALLVALUE DUP1 ISZERO PUSH2 0x19D JUMPI PUSH0 DUP1 REVERT JUMPDEST POP PUSH2 0x128 PUSH2 0x1AC CALLDATASIZE PUSH1 0x4 PUSH2 0x1A73 JUMP JUMPDEST PUSH2 0x971 JUMP JUMPDEST CALLVALUE DUP1 ISZERO PUSH2 0x1BC JUMPI PUSH0 DUP1 REVERT JUMPDEST POP PUSH2 0x128 PUSH2 0x1CB CALLDATASIZE PUSH1 0x4 PUSH2 0x1A73 JUMP JUMPDEST PUSH2 0xB39 JUMP JUMPDEST CALLVALUE DUP1 ISZERO PUSH2 0x1DB JUMPI PUSH0 DUP1 REVERT JUMPDEST POP PUSH2 0x128 PUSH2 0x1EA CALLDATASIZE PUSH1 0x4 PUSH2 0x1A8A JUMP JUMPDEST PUSH2 0xC5C JUMP JUMPDEST CALLVALUE DUP1 ISZERO PUSH2 0x1FA JUMPI PUSH0 DUP1 REVERT JUMPDEST POP PUSH2 0x20E PUSH2 0x209 CALLDATASIZE PUSH1 0x4 PUSH2 0x1A73 JUMP JUMPDEST PUSH2 0xE1A JUMP JUMPDEST PUSH1 0x40 MLOAD PUSH2 0x156 SWAP2 SWAP1 PUSH2 0x1B02 JUMP JUMPDEST CALLVALUE DUP1 ISZERO PUSH2 0x226 JUMPI PUSH0 DUP1 REVERT JUMPDEST POP PUSH2 0x22F PUSH2 0x1005 JUMP JUMPDEST PUSH1 0x40 MLOAD SWAP1 DUP2 MSTORE PUSH1 0x20 ADD PUSH2 0x156 JUMP JUMPDEST CALLVALUE DUP1 ISZERO PUSH2 0x248 JUMPI PUSH0 DUP1 REVERT JUMPDEST POP PUSH2 0x22F PUSH2 0x1038 JUMP JUMPDEST CALLVALUE DUP1 ISZERO PUSH2 0x25C JUMPI PUSH0 DUP1 REVERT JUMPDEST POP PUSH1 0x2 SLOAD PUSH1 0x40 MLOAD PUSH1 0x1 PUSH1 0x1 PUSH1 0xA0 SHL SUB SWAP1 SWAP2 AND DUP2 MSTORE PUSH1 0x20 ADD PUSH2 0x156 JUMP JUMPDEST CALLVALUE DUP1 ISZERO PUSH2 0x283 JUMPI PUSH0 DUP1 REVERT JUMPDEST POP PUSH2 0x128 PUSH2 0x292 CALLDATASIZE PUSH1 0x4 PUSH2 0x1B14 JUMP JUMPDEST PUSH2 0x1069 JUMP JUMPDEST CALLVALUE DUP1 ISZERO PUSH2 0x2A2 JUMPI PUSH0 DUP1 REVERT JUMPDEST POP PUSH2 0x2B6 PUSH2 0x2B1 CALLDATASIZE PUSH1 0x4 PUSH2 0x1A4D JUMP JUMPDEST PUSH2 0x1152 JUMP JUMPDEST PUSH1 0x40 MLOAD PUSH2 0x156 SWAP2 SWAP1 PUSH2 0x1B3E JUMP JUMPDEST PUSH2 0x128 PUSH2 0x133C JUMP JUMPDEST CALLVALUE DUP1 ISZERO PUSH2 0x2D6 JUMPI PUSH0 DUP1 REVERT JUMPDEST POP PUSH2 0x128 PUSH2 0x2E5 CALLDATASIZE PUSH1 0x4 PUSH2 0x1BBE JUMP JUMPDEST PUSH2 0x13BE JUMP JUMPDEST CALLVALUE DUP1 ISZERO PUSH2 0x2F5 JUMPI PUSH0 DUP1 REVERT JUMPDEST POP PUSH2 0x128 PUSH2 0x14F1 JUMP JUMPDEST CALLVALUE DUP1 ISZERO PUSH2 0x309 JUMPI PUSH0 DUP1 REVERT JUMPDEST POP PUSH2 0x128 PUSH2 0x318 CALLDATASIZE PUSH1 0x4 PUSH2 0x1A73 JUMP JUMPDEST PUSH2 0x162B JUMP JUMPDEST CALLVALUE DUP1 ISZERO PUSH2 0x328 JUMPI PUSH0 DUP1 REVERT JUMPDEST POP PUSH1 0x1 SLOAD PUSH2 0x22F JUMP JUMPDEST PUSH2 0x33A CALLER PUSH2 0x177D JUMP JUMPDEST ISZERO PUSH2 0x381 JUMPI PUSH1 0x40 MLOAD PUSH3 0x461BCD PUSH1 0xE5 SHL DUP2 MSTORE PUSH1 0x20 PUSH1 0x4 DUP3 ADD MSTORE PUSH1 0x12 PUSH1 0x24 DUP3 ADD MSTORE PUSH18 0x1D5CD95C88185B1C9958591E48195E1A5CDD PUSH1 0x72 SHL PUSH1 0x44 DUP3 ADD MSTORE PUSH1 0x64 ADD JUMPDEST PUSH1 0x40 MLOAD DUP1 SWAP2 SUB SWAP1 REVERT JUMPDEST PUSH1 0x40 MLOAD DUP1 PUSH1 0xE0 ADD PUSH1 0x40 MSTORE DUP1 CALLER PUSH1 0x1 PUSH1 0x1 PUSH1 0xA0 SHL SUB AND DUP2 MSTORE PUSH1 0x20 ADD DUP6 DUP6 DUP1 DUP1 PUSH1 0x1F ADD PUSH1 0x20 DUP1 SWAP2 DIV MUL PUSH1 0x20 ADD PUSH1 0x40 MLOAD SWAP1 DUP2 ADD PUSH1 0x40 MSTORE DUP1 SWAP4 SWAP3 SWAP2 SWAP1 DUP2 DUP2 MSTORE PUSH1 0x20 ADD DUP4 DUP4 DUP1 DUP3 DUP5 CALLDATACOPY PUSH0 SWAP3 ADD SWAP2 SWAP1 SWAP2 MSTORE POP POP POP SWAP1 DUP3 MSTORE POP PUSH1 0x40 DUP1 MLOAD PUSH1 0x20 PUSH1 0x1F DUP7 ADD DUP2 SWAP1 DIV DUP2 MUL DUP3 ADD DUP2 ADD SWAP1 SWAP3 MSTORE DUP5 DUP2 MSTORE SWAP2 DUP2 ADD SWAP2 SWAP1 DUP6 SWAP1 DUP6 SWAP1 DUP2 SWAP1 DUP5 ADD DUP4 DUP3 DUP1 DUP3 DUP5 CALLDATACOPY PUSH0 SWAP3 ADD DUP3 SWAP1 MSTORE POP SWAP4 DUP6 MSTORE POP POP POP PUSH1 0x20 DUP1 DUP4 ADD DUP3 SWAP1 MSTORE PUSH1 0x40 DUP1 DUP5 ADD DUP4 SWAP1 MSTORE PUSH1 0x60 DUP5 ADD DUP4 SWAP1 MSTORE PUSH1 0x80 SWAP1 SWAP4 ADD DUP3 SWAP1 MSTORE CALLER DUP3 MSTORE PUSH1 0x4 DUP2 MSTORE SWAP2 SWAP1 KECCAK256 DUP3 MLOAD DUP2 SLOAD PUSH1 0x1 PUSH1 0x1 PUSH1 0xA0 SHL SUB NOT AND PUSH1 0x1 PUSH1 0x1 PUSH1 0xA0 SHL SUB SWAP1 SWAP2 AND OR DUP2 SSTORE SWAP1 DUP3 ADD MLOAD PUSH1 0x1 DUP3 ADD SWAP1 PUSH2 0x464 SWAP1 DUP3 PUSH2 0x1CD8 JUMP JUMPDEST POP PUSH1 0x40 DUP3 ADD MLOAD PUSH1 0x2 DUP3 ADD SWAP1 PUSH2 0x479 SWAP1 DUP3 PUSH2 0x1CD8 JUMP JUMPDEST POP PUSH1 0x60 DUP3 ADD MLOAD PUSH1 0x3 DUP3 ADD SSTORE PUSH1 0x80 DUP3 ADD MLOAD PUSH1 0x4 DUP1 DUP4 ADD SWAP2 SWAP1 SWAP2 SSTORE PUSH1 0xA0 DUP4 ADD MLOAD PUSH1 0x5 DUP4 ADD SSTORE PUSH1 0xC0 SWAP1 SWAP3 ADD MLOAD PUSH1 0x6 SWAP1 SWAP2 ADD SSTORE CALLER PUSH0 DUP2 DUP2 MSTORE PUSH1 0x20 SWAP3 SWAP1 SWAP3 MSTORE PUSH1 0x40 SWAP2 DUP3 SWAP1 KECCAK256 SWAP2 MLOAD SWAP1 SWAP2 PUSH32 0x8EAB1DB142A914AFF8B515EEDB9177BD7EFFAEF6D714C41E30BDF15206778607 SWAP2 PUSH2 0x4F3 SWAP2 PUSH1 0x1 DUP2 ADD SWAP2 PUSH1 0x2 SWAP1 SWAP2 ADD SWAP1 PUSH2 0x1E11 JUMP JUMPDEST PUSH1 0x40 MLOAD DUP1 SWAP2 SUB SWAP1 LOG2 POP POP POP POP JUMP JUMPDEST PUSH1 0x1 DUP1 SLOAD PUSH1 0x60 SWAP2 PUSH0 SWAP2 SWAP1 JUMPDEST DUP2 DUP2 GT PUSH2 0x56F JUMPI DUP5 PUSH1 0x2 DUP2 GT ISZERO PUSH2 0x525 JUMPI PUSH2 0x525 PUSH2 0x194C JUMP JUMPDEST PUSH0 DUP3 DUP2 MSTORE PUSH1 0x5 PUSH1 0x20 MSTORE PUSH1 0x40 SWAP1 KECCAK256 PUSH1 0x3 ADD SLOAD PUSH1 0xFF AND PUSH1 0x2 DUP2 GT ISZERO PUSH2 0x54A JUMPI PUSH2 0x54A PUSH2 0x194C JUMP JUMPDEST SUB PUSH2 0x55D JUMPI DUP3 PUSH2 0x559 DUP2 PUSH2 0x1E52 JUMP JUMPDEST SWAP4 POP POP JUMPDEST DUP1 PUSH2 0x567 DUP2 PUSH2 0x1E52 JUMP JUMPDEST SWAP2 POP POP PUSH2 0x50C JUMP JUMPDEST POP PUSH0 DUP3 PUSH8 0xFFFFFFFFFFFFFFFF DUP2 GT ISZERO PUSH2 0x58A JUMPI PUSH2 0x58A PUSH2 0x1C40 JUMP JUMPDEST PUSH1 0x40 MLOAD SWAP1 DUP1 DUP3 MSTORE DUP1 PUSH1 0x20 MUL PUSH1 0x20 ADD DUP3 ADD PUSH1 0x40 MSTORE DUP1 ISZERO PUSH2 0x5C3 JUMPI DUP2 PUSH1 0x20 ADD JUMPDEST PUSH2 0x5B0 PUSH2 0x17E7 JUMP JUMPDEST DUP2 MSTORE PUSH1 0x20 ADD SWAP1 PUSH1 0x1 SWAP1 SUB SWAP1 DUP2 PUSH2 0x5A8 JUMPI SWAP1 POP JUMPDEST POP PUSH0 SWAP4 POP SWAP1 POP PUSH1 0x1 JUMPDEST DUP3 DUP2 GT PUSH2 0x7D9 JUMPI DUP6 PUSH1 0x2 DUP2 GT ISZERO PUSH2 0x5E5 JUMPI PUSH2 0x5E5 PUSH2 0x194C JUMP JUMPDEST PUSH0 DUP3 DUP2 MSTORE PUSH1 0x5 PUSH1 0x20 MSTORE PUSH1 0x40 SWAP1 KECCAK256 PUSH1 0x3 ADD SLOAD PUSH1 0xFF AND PUSH1 0x2 DUP2 GT ISZERO PUSH2 0x60A JUMPI PUSH2 0x60A PUSH2 0x194C JUMP JUMPDEST SUB PUSH2 0x7C7 JUMPI PUSH1 0x5 PUSH0 DUP3 DUP2 MSTORE PUSH1 0x20 ADD SWAP1 DUP2 MSTORE PUSH1 0x20 ADD PUSH0 KECCAK256 PUSH1 0x40 MLOAD DUP1 PUSH1 0xC0 ADD PUSH1 0x40 MSTORE SWAP1 DUP2 PUSH0 DUP3 ADD SLOAD DUP2 MSTORE PUSH1 0x20 ADD PUSH1 0x1 DUP3 ADD DUP1 SLOAD PUSH2 0x644 SWAP1 PUSH2 0x1C54 JUMP JUMPDEST DUP1 PUSH1 0x1F ADD PUSH1 0x20 DUP1 SWAP2 DIV MUL PUSH1 0x20 ADD PUSH1 0x40 MLOAD SWAP1 DUP2 ADD PUSH1 0x40 MSTORE DUP1 SWAP3 SWAP2 SWAP1 DUP2 DUP2 MSTORE PUSH1 0x20 ADD DUP3 DUP1 SLOAD PUSH2 0x670 SWAP1 PUSH2 0x1C54 JUMP JUMPDEST DUP1 ISZERO PUSH2 0x6BB JUMPI DUP1 PUSH1 0x1F LT PUSH2 0x692 JUMPI PUSH2 0x100 DUP1 DUP4 SLOAD DIV MUL DUP4 MSTORE SWAP2 PUSH1 0x20 ADD SWAP2 PUSH2 0x6BB JUMP JUMPDEST DUP3 ADD SWAP2 SWAP1 PUSH0 MSTORE PUSH1 0x20 PUSH0 KECCAK256 SWAP1 JUMPDEST DUP2 SLOAD DUP2 MSTORE SWAP1 PUSH1 0x1 ADD SWAP1 PUSH1 0x20 ADD DUP1 DUP4 GT PUSH2 0x69E JUMPI DUP3 SWAP1 SUB PUSH1 0x1F AND DUP3 ADD SWAP2 JUMPDEST POP POP POP POP POP DUP2 MSTORE PUSH1 0x20 ADD PUSH1 0x2 DUP3 ADD DUP1 SLOAD PUSH2 0x6D4 SWAP1 PUSH2 0x1C54 JUMP JUMPDEST DUP1 PUSH1 0x1F ADD PUSH1 0x20 DUP1 SWAP2 DIV MUL PUSH1 0x20 ADD PUSH1 0x40 MLOAD SWAP1 DUP2 ADD PUSH1 0x40 MSTORE DUP1 SWAP3 SWAP2 SWAP1 DUP2 DUP2 MSTORE PUSH1 0x20 ADD DUP3 DUP1 SLOAD PUSH2 0x700 SWAP1 PUSH2 0x1C54 JUMP JUMPDEST DUP1 ISZERO PUSH2 0x74B JUMPI DUP1 PUSH1 0x1F LT PUSH2 0x722 JUMPI PUSH2 0x100 DUP1 DUP4 SLOAD DIV MUL DUP4 MSTORE SWAP2 PUSH1 0x20 ADD SWAP2 PUSH2 0x74B JUMP JUMPDEST DUP3 ADD SWAP2 SWAP1 PUSH0 MSTORE PUSH1 0x20 PUSH0 KECCAK256 SWAP1 JUMPDEST DUP2 SLOAD DUP2 MSTORE SWAP1 PUSH1 0x1 ADD SWAP1 PUSH1 0x20 ADD DUP1 DUP4 GT PUSH2 0x72E JUMPI DUP3 SWAP1 SUB PUSH1 0x1F AND DUP3 ADD SWAP2 JUMPDEST POP POP POP SWAP2 DUP4 MSTORE POP POP PUSH1 0x3 DUP3 ADD SLOAD PUSH1 0x20 SWAP1 SWAP2 ADD SWAP1 PUSH1 0xFF AND PUSH1 0x2 DUP2 GT ISZERO PUSH2 0x772 JUMPI PUSH2 0x772 PUSH2 0x194C JUMP JUMPDEST PUSH1 0x2 DUP2 GT ISZERO PUSH2 0x783 JUMPI PUSH2 0x783 PUSH2 0x194C JUMP JUMPDEST DUP2 MSTORE PUSH1 0x20 ADD PUSH1 0x4 DUP3 ADD SLOAD DUP2 MSTORE PUSH1 0x20 ADD PUSH1 0x5 DUP3 ADD SLOAD DUP2 MSTORE POP POP DUP3 DUP6 DUP2 MLOAD DUP2 LT PUSH2 0x7AD JUMPI PUSH2 0x7AD PUSH2 0x1E6A JUMP JUMPDEST PUSH1 0x20 MUL PUSH1 0x20 ADD ADD DUP2 SWAP1 MSTORE POP DUP4 DUP1 PUSH2 0x7C3 SWAP1 PUSH2 0x1E52 JUMP JUMPDEST SWAP5 POP POP JUMPDEST DUP1 PUSH2 0x7D1 DUP2 PUSH2 0x1E52 JUMP JUMPDEST SWAP2 POP POP PUSH2 0x5CC JUMP JUMPDEST POP SWAP5 SWAP4 POP POP POP POP JUMP JUMPDEST PUSH1 0x2 SLOAD PUSH1 0x1 PUSH1 0x1 PUSH1 0xA0 SHL SUB AND CALLER EQ PUSH2 0x80C JUMPI PUSH1 0x40 MLOAD PUSH3 0x461BCD PUSH1 0xE5 SHL DUP2 MSTORE PUSH1 0x4 ADD PUSH2 0x378 SWAP1 PUSH2 0x1E7E JUMP JUMPDEST PUSH1 0x2 DUP1 SLOAD PUSH1 0x1 PUSH1 0x1 PUSH1 0xA0 SHL SUB NOT AND PUSH1 0x1 PUSH1 0x1 PUSH1 0xA0 SHL SUB SWAP3 SWAP1 SWAP3 AND SWAP2 SWAP1 SWAP2 OR SWAP1 SSTORE JUMP JUMPDEST PUSH2 0x837 CALLER PUSH2 0x177D JUMP JUMPDEST PUSH2 0x87A JUMPI PUSH1 0x40 MLOAD PUSH3 0x461BCD PUSH1 0xE5 SHL DUP2 MSTORE PUSH1 0x20 PUSH1 0x4 DUP3 ADD MSTORE PUSH1 0x14 PUSH1 0x24 DUP3 ADD MSTORE PUSH20 0x7573657220646F6573206E6F7420657869737421 PUSH1 0x60 SHL PUSH1 0x44 DUP3 ADD MSTORE PUSH1 0x64 ADD PUSH2 0x378 JUMP JUMPDEST CALLER PUSH0 SWAP1 DUP2 MSTORE PUSH1 0x4 PUSH1 0x20 MSTORE PUSH1 0x40 DUP2 KECCAK256 PUSH1 0x3 ADD SLOAD SWAP1 DUP2 SWAP1 SUB PUSH2 0x8CC JUMPI PUSH1 0x40 MLOAD PUSH3 0x461BCD PUSH1 0xE5 SHL DUP2 MSTORE PUSH1 0x20 PUSH1 0x4 DUP3 ADD MSTORE PUSH1 0xD PUSH1 0x24 DUP3 ADD MSTORE PUSH13 0x139BC818D85C881C995B9D1959 PUSH1 0x9A SHL PUSH1 0x44 DUP3 ADD MSTORE PUSH1 0x64 ADD PUSH2 0x378 JUMP JUMPDEST CALLER PUSH0 SWAP1 DUP2 MSTORE PUSH1 0x4 PUSH1 0x20 MSTORE PUSH1 0x40 DUP2 KECCAK256 PUSH1 0x6 ADD SLOAD PUSH2 0x8E8 SWAP1 TIMESTAMP PUSH2 0x1EC3 JUMP JUMPDEST PUSH0 DUP4 DUP2 MSTORE PUSH1 0x5 PUSH1 0x20 MSTORE PUSH1 0x40 SWAP1 KECCAK256 PUSH1 0x4 ADD SLOAD SWAP1 SWAP2 POP PUSH2 0x906 DUP3 DUP3 PUSH2 0x179C JUMP JUMPDEST CALLER PUSH0 DUP2 DUP2 MSTORE PUSH1 0x4 PUSH1 0x20 SWAP1 DUP2 MSTORE PUSH1 0x40 DUP1 DUP4 KECCAK256 PUSH1 0x5 DUP1 DUP3 ADD SWAP7 SWAP1 SWAP7 SSTORE PUSH1 0x3 DUP1 DUP3 ADD DUP6 SWAP1 SSTORE PUSH1 0x6 SWAP1 SWAP2 ADD DUP5 SWAP1 SSTORE DUP9 DUP5 MSTORE SWAP5 SWAP1 SWAP2 MSTORE DUP1 DUP3 KECCAK256 SWAP1 SWAP4 ADD DUP1 SLOAD PUSH1 0xFF NOT AND SWAP1 SSTORE SWAP2 MLOAD DUP6 SWAP3 PUSH32 0xA864A8B988E604BB05D6CE75D53EFABB5620C45B15380B7BD0C51DCFA71DDA03 SWAP2 LOG3 POP POP POP JUMP JUMPDEST PUSH2 0x97A CALLER PUSH2 0x177D JUMP JUMPDEST PUSH2 0x9BD JUMPI PUSH1 0x40 MLOAD PUSH3 0x461BCD PUSH1 0xE5 SHL DUP2 MSTORE PUSH1 0x20 PUSH1 0x4 DUP3 ADD MSTORE PUSH1 0x14 PUSH1 0x24 DUP3 ADD MSTORE PUSH20 0x7573657220646F6573206E6F7420657869737421 PUSH1 0x60 SHL PUSH1 0x44 DUP3 ADD MSTORE PUSH1 0x64 ADD PUSH2 0x378 JUMP JUMPDEST PUSH0 DUP2 DUP2 MSTORE PUSH1 0x5 PUSH1 0x20 MSTORE PUSH1 0x40 DUP2 KECCAK256 PUSH1 0x3 ADD SLOAD PUSH1 0xFF AND PUSH1 0x2 DUP2 GT ISZERO PUSH2 0x9E2 JUMPI PUSH2 0x9E2 PUSH2 0x194C JUMP JUMPDEST EQ PUSH2 0xA27 JUMPI PUSH1 0x40 MLOAD PUSH3 0x461BCD PUSH1 0xE5 SHL DUP2 MSTORE PUSH1 0x20 PUSH1 0x4 DUP3 ADD MSTORE PUSH1 0x15 PUSH1 0x24 DUP3 ADD MSTORE PUSH21 0x20436172206973206E6F7420617661696C61626C65 PUSH1 0x58 SHL PUSH1 0x44 DUP3 ADD MSTORE PUSH1 0x64 ADD PUSH2 0x378 JUMP JUMPDEST CALLER PUSH0 SWAP1 DUP2 MSTORE PUSH1 0x4 PUSH1 0x20 MSTORE PUSH1 0x40 SWAP1 KECCAK256 PUSH1 0x3 ADD SLOAD ISZERO PUSH2 0xA78 JUMPI PUSH1 0x40 MLOAD PUSH3 0x461BCD PUSH1 0xE5 SHL DUP2 MSTORE PUSH1 0x20 PUSH1 0x4 DUP3 ADD MSTORE PUSH1 0xF PUSH1 0x24 DUP3 ADD MSTORE PUSH15 0x416C72656164792052656E74656421 PUSH1 0x88 SHL PUSH1 0x44 DUP3 ADD MSTORE PUSH1 0x64 ADD PUSH2 0x378 JUMP JUMPDEST CALLER PUSH0 SWAP1 DUP2 MSTORE PUSH1 0x4 PUSH1 0x20 MSTORE PUSH1 0x40 SWAP1 KECCAK256 PUSH1 0x5 ADD SLOAD ISZERO PUSH2 0xAD7 JUMPI PUSH1 0x40 MLOAD PUSH3 0x461BCD PUSH1 0xE5 SHL DUP2 MSTORE PUSH1 0x20 PUSH1 0x4 DUP3 ADD MSTORE PUSH1 0x18 PUSH1 0x24 DUP3 ADD MSTORE PUSH32 0x436C65617220796F752070726576696F75732064656274210000000000000000 PUSH1 0x44 DUP3 ADD MSTORE PUSH1 0x64 ADD PUSH2 0x378 JUMP JUMPDEST CALLER PUSH0 DUP2 DUP2 MSTORE PUSH1 0x4 PUSH1 0x20 SWAP1 DUP2 MSTORE PUSH1 0x40 DUP1 DUP4 KECCAK256 TIMESTAMP PUSH1 0x6 DUP3 ADD SSTORE PUSH1 0x3 SWAP1 DUP2 ADD DUP7 SWAP1 SSTORE DUP6 DUP5 MSTORE PUSH1 0x5 SWAP1 SWAP3 MSTORE DUP1 DUP4 KECCAK256 SWAP1 SWAP2 ADD DUP1 SLOAD PUSH1 0xFF NOT AND PUSH1 0x1 OR SWAP1 SSTORE MLOAD DUP4 SWAP3 SWAP2 PUSH32 0xF65CE03794824579BCD95D8C6743FFC10C4A5E7405FB3876C1ABF81453105C42 SWAP2 LOG3 POP JUMP JUMPDEST PUSH1 0x2 SLOAD PUSH1 0x1 PUSH1 0x1 PUSH1 0xA0 SHL SUB AND CALLER EQ PUSH2 0xB63 JUMPI PUSH1 0x40 MLOAD PUSH3 0x461BCD PUSH1 0xE5 SHL DUP2 MSTORE PUSH1 0x4 ADD PUSH2 0x378 SWAP1 PUSH2 0x1E7E JUMP JUMPDEST PUSH2 0xB6B PUSH2 0x17BF JUMP JUMPDEST DUP1 PUSH1 0x3 SLOAD LT ISZERO PUSH2 0xBB4 JUMPI PUSH1 0x40 MLOAD PUSH3 0x461BCD PUSH1 0xE5 SHL DUP2 MSTORE PUSH1 0x20 PUSH1 0x4 DUP3 ADD MSTORE PUSH1 0x14 PUSH1 0x24 DUP3 ADD MSTORE PUSH20 0x496E73756666696369656E742042616C616E6365 PUSH1 0x60 SHL PUSH1 0x44 DUP3 ADD MSTORE PUSH1 0x64 ADD PUSH2 0x378 JUMP JUMPDEST PUSH1 0x2 SLOAD PUSH1 0x40 MLOAD PUSH0 SWAP2 PUSH1 0x1 PUSH1 0x1 PUSH1 0xA0 SHL SUB AND SWAP1 DUP4 SWAP1 DUP4 DUP2 DUP2 DUP2 DUP6 DUP8 GAS CALL SWAP3 POP POP POP RETURNDATASIZE DUP1 PUSH0 DUP2 EQ PUSH2 0xBFE JUMPI PUSH1 0x40 MLOAD SWAP2 POP PUSH1 0x1F NOT PUSH1 0x3F RETURNDATASIZE ADD AND DUP3 ADD PUSH1 0x40 MSTORE RETURNDATASIZE DUP3 MSTORE RETURNDATASIZE PUSH0 PUSH1 0x20 DUP5 ADD RETURNDATACOPY PUSH2 0xC03 JUMP JUMPDEST PUSH1 0x60 SWAP2 POP JUMPDEST POP POP SWAP1 POP DUP1 PUSH2 0xC46 JUMPI PUSH1 0x40 MLOAD PUSH3 0x461BCD PUSH1 0xE5 SHL DUP2 MSTORE PUSH1 0x20 PUSH1 0x4 DUP3 ADD MSTORE PUSH1 0xF PUSH1 0x24 DUP3 ADD MSTORE PUSH15 0x151C985B9CD9995C8811985A5B1959 PUSH1 0x8A SHL PUSH1 0x44 DUP3 ADD MSTORE PUSH1 0x64 ADD PUSH2 0x378 JUMP JUMPDEST POP PUSH1 0x3 DUP1 SLOAD DUP3 SWAP1 SUB SWAP1 SSTORE PUSH2 0xC59 PUSH1 0x1 PUSH0 SSTORE JUMP JUMPDEST POP JUMP JUMPDEST PUSH1 0x2 SLOAD PUSH1 0x1 PUSH1 0x1 PUSH1 0xA0 SHL SUB AND CALLER EQ PUSH2 0xC86 JUMPI PUSH1 0x40 MLOAD PUSH3 0x461BCD PUSH1 0xE5 SHL DUP2 MSTORE PUSH1 0x4 ADD PUSH2 0x378 SWAP1 PUSH2 0x1E7E JUMP JUMPDEST PUSH1 0x1 DUP1 SLOAD SWAP1 PUSH0 PUSH2 0xC96 DUP4 DUP1 PUSH2 0x1ED6 JUMP JUMPDEST SWAP1 SWAP2 SSTORE POP POP PUSH1 0x1 SLOAD PUSH1 0x40 DUP1 MLOAD PUSH1 0xC0 DUP2 ADD DUP3 MSTORE DUP3 DUP2 MSTORE DUP2 MLOAD PUSH1 0x20 PUSH1 0x1F DUP11 ADD DUP2 SWAP1 DIV DUP2 MUL DUP3 ADD DUP2 ADD SWAP1 SWAP4 MSTORE DUP9 DUP2 MSTORE SWAP1 SWAP2 DUP1 DUP4 ADD SWAP2 SWAP1 DUP11 SWAP1 DUP11 SWAP1 DUP2 SWAP1 DUP5 ADD DUP4 DUP3 DUP1 DUP3 DUP5 CALLDATACOPY PUSH0 SWAP3 ADD SWAP2 SWAP1 SWAP2 MSTORE POP POP POP SWAP1 DUP3 MSTORE POP PUSH1 0x40 DUP1 MLOAD PUSH1 0x20 PUSH1 0x1F DUP10 ADD DUP2 SWAP1 DIV DUP2 MUL DUP3 ADD DUP2 ADD SWAP1 SWAP3 MSTORE DUP8 DUP2 MSTORE SWAP2 DUP2 ADD SWAP2 SWAP1 DUP9 SWAP1 DUP9 SWAP1 DUP2 SWAP1 DUP5 ADD DUP4 DUP3 DUP1 DUP3 DUP5 CALLDATACOPY PUSH0 SWAP3 ADD DUP3 SWAP1 MSTORE POP SWAP4 DUP6 MSTORE POP POP POP PUSH1 0x20 DUP1 DUP4 ADD DUP3 SWAP1 MSTORE PUSH1 0x40 DUP1 DUP5 ADD DUP9 SWAP1 MSTORE PUSH1 0x60 SWAP1 SWAP4 ADD DUP7 SWAP1 MSTORE DUP5 DUP3 MSTORE PUSH1 0x5 DUP2 MSTORE SWAP2 SWAP1 KECCAK256 DUP3 MLOAD DUP2 SSTORE SWAP1 DUP3 ADD MLOAD PUSH1 0x1 DUP3 ADD SWAP1 PUSH2 0xD57 SWAP1 DUP3 PUSH2 0x1CD8 JUMP JUMPDEST POP PUSH1 0x40 DUP3 ADD MLOAD PUSH1 0x2 DUP3 ADD SWAP1 PUSH2 0xD6C SWAP1 DUP3 PUSH2 0x1CD8 JUMP JUMPDEST POP PUSH1 0x60 DUP3 ADD MLOAD PUSH1 0x3 DUP3 ADD DUP1 SLOAD PUSH1 0xFF NOT AND PUSH1 0x1 DUP4 PUSH1 0x2 DUP2 GT ISZERO PUSH2 0xD90 JUMPI PUSH2 0xD90 PUSH2 0x194C JUMP JUMPDEST MUL OR SWAP1 SSTORE POP PUSH1 0x80 DUP3 ADD MLOAD PUSH1 0x4 DUP1 DUP4 ADD SWAP2 SWAP1 SWAP2 SSTORE PUSH1 0xA0 SWAP1 SWAP3 ADD MLOAD PUSH1 0x5 SWAP2 DUP3 ADD SSTORE PUSH0 DUP4 DUP2 MSTORE PUSH1 0x20 DUP3 SWAP1 MSTORE PUSH1 0x40 SWAP1 DUP2 SWAP1 KECCAK256 PUSH1 0x3 DUP2 ADD SLOAD SWAP4 DUP2 ADD SLOAD SWAP3 DUP2 ADD SLOAD SWAP2 MLOAD DUP6 SWAP5 PUSH32 0xBF756A5243218B4AB0278D26606628935E8F9B9C6035A2FAA62A4AE4505A099A SWAP5 PUSH2 0xE09 SWAP5 PUSH1 0x1 DUP6 ADD SWAP5 PUSH1 0x2 ADD SWAP4 PUSH1 0xFF SWAP1 SWAP4 AND SWAP3 PUSH2 0x1EE9 JUMP JUMPDEST PUSH1 0x40 MLOAD DUP1 SWAP2 SUB SWAP1 LOG2 POP POP POP POP POP POP POP JUMP JUMPDEST PUSH2 0xE22 PUSH2 0x17E7 JUMP JUMPDEST PUSH0 DUP3 DUP2 MSTORE PUSH1 0x5 PUSH1 0x20 MSTORE PUSH1 0x40 DUP2 KECCAK256 SLOAD SWAP1 SUB PUSH2 0xE73 JUMPI PUSH1 0x40 MLOAD PUSH3 0x461BCD PUSH1 0xE5 SHL DUP2 MSTORE PUSH1 0x20 PUSH1 0x4 DUP3 ADD MSTORE PUSH1 0x12 PUSH1 0x24 DUP3 ADD MSTORE PUSH18 0x10D85C88191BD95CC81B9BDD08195E1A5CDD PUSH1 0x72 SHL PUSH1 0x44 DUP3 ADD MSTORE PUSH1 0x64 ADD PUSH2 0x378 JUMP JUMPDEST PUSH1 0x5 PUSH0 DUP4 DUP2 MSTORE PUSH1 0x20 ADD SWAP1 DUP2 MSTORE PUSH1 0x20 ADD PUSH0 KECCAK256 PUSH1 0x40 MLOAD DUP1 PUSH1 0xC0 ADD PUSH1 0x40 MSTORE SWAP1 DUP2 PUSH0 DUP3 ADD SLOAD DUP2 MSTORE PUSH1 0x20 ADD PUSH1 0x1 DUP3 ADD DUP1 SLOAD PUSH2 0xEA8 SWAP1 PUSH2 0x1C54 JUMP JUMPDEST DUP1 PUSH1 0x1F ADD PUSH1 0x20 DUP1 SWAP2 DIV MUL PUSH1 0x20 ADD PUSH1 0x40 MLOAD SWAP1 DUP2 ADD PUSH1 0x40 MSTORE DUP1 SWAP3 SWAP2 SWAP1 DUP2 DUP2 MSTORE PUSH1 0x20 ADD DUP3 DUP1 SLOAD PUSH2 0xED4 SWAP1 PUSH2 0x1C54 JUMP JUMPDEST DUP1 ISZERO PUSH2 0xF1F JUMPI DUP1 PUSH1 0x1F LT PUSH2 0xEF6 JUMPI PUSH2 0x100 DUP1 DUP4 SLOAD DIV MUL DUP4 MSTORE SWAP2 PUSH1 0x20 ADD SWAP2 PUSH2 0xF1F JUMP JUMPDEST DUP3 ADD SWAP2 SWAP1 PUSH0 MSTORE PUSH1 0x20 PUSH0 KECCAK256 SWAP1 JUMPDEST DUP2 SLOAD DUP2 MSTORE SWAP1 PUSH1 0x1 ADD SWAP1 PUSH1 0x20 ADD DUP1 DUP4 GT PUSH2 0xF02 JUMPI DUP3 SWAP1 SUB PUSH1 0x1F AND DUP3 ADD SWAP2 JUMPDEST POP POP POP POP POP DUP2 MSTORE PUSH1 0x20 ADD PUSH1 0x2 DUP3 ADD DUP1 SLOAD PUSH2 0xF38 SWAP1 PUSH2 0x1C54 JUMP JUMPDEST DUP1 PUSH1 0x1F ADD PUSH1 0x20 DUP1 SWAP2 DIV MUL PUSH1 0x20 ADD PUSH1 0x40 MLOAD SWAP1 DUP2 ADD PUSH1 0x40 MSTORE DUP1 SWAP3 SWAP2 SWAP1 DUP2 DUP2 MSTORE PUSH1 0x20 ADD DUP3 DUP1 SLOAD PUSH2 0xF64 SWAP1 PUSH2 0x1C54 JUMP JUMPDEST DUP1 ISZERO PUSH2 0xFAF JUMPI DUP1 PUSH1 0x1F LT PUSH2 0xF86 JUMPI PUSH2 0x100 DUP1 DUP4 SLOAD DIV MUL DUP4 MSTORE SWAP2 PUSH1 0x20 ADD SWAP2 PUSH2 0xFAF JUMP JUMPDEST DUP3 ADD SWAP2 SWAP1 PUSH0 MSTORE PUSH1 0x20 PUSH0 KECCAK256 SWAP1 JUMPDEST DUP2 SLOAD DUP2 MSTORE SWAP1 PUSH1 0x1 ADD SWAP1 PUSH1 0x20 ADD DUP1 DUP4 GT PUSH2 0xF92 JUMPI DUP3 SWAP1 SUB PUSH1 0x1F AND DUP3 ADD SWAP2 JUMPDEST POP POP POP SWAP2 DUP4 MSTORE POP POP PUSH1 0x3 DUP3 ADD SLOAD PUSH1 0x20 SWAP1 SWAP2 ADD SWAP1 PUSH1 0xFF AND PUSH1 0x2 DUP2 GT ISZERO PUSH2 0xFD6 JUMPI PUSH2 0xFD6 PUSH2 0x194C JUMP JUMPDEST PUSH1 0x2 DUP2 GT ISZERO PUSH2 0xFE7 JUMPI PUSH2 0xFE7 PUSH2 0x194C JUMP JUMPDEST DUP2 MSTORE PUSH1 0x4 DUP3 ADD SLOAD PUSH1 0x20 DUP3 ADD MSTORE PUSH1 0x5 SWAP1 SWAP2 ADD SLOAD PUSH1 0x40 SWAP1 SWAP2 ADD MSTORE SWAP3 SWAP2 POP POP JUMP JUMPDEST PUSH1 0x2 SLOAD PUSH0 SWAP1 PUSH1 0x1 PUSH1 0x1 PUSH1 0xA0 SHL SUB AND CALLER EQ PUSH2 0x1031 JUMPI PUSH1 0x40 MLOAD PUSH3 0x461BCD PUSH1 0xE5 SHL DUP2 MSTORE PUSH1 0x4 ADD PUSH2 0x378 SWAP1 PUSH2 0x1E7E JUMP JUMPDEST POP PUSH1 0x3 SLOAD SWAP1 JUMP JUMPDEST PUSH1 0x2 SLOAD PUSH0 SWAP1 PUSH1 0x1 PUSH1 0x1 PUSH1 0xA0 SHL SUB AND CALLER EQ PUSH2 0x1064 JUMPI PUSH1 0x40 MLOAD PUSH3 0x461BCD PUSH1 0xE5 SHL DUP2 MSTORE PUSH1 0x4 ADD PUSH2 0x378 SWAP1 PUSH2 0x1E7E JUMP JUMPDEST POP SELFBALANCE SWAP1 JUMP JUMPDEST PUSH1 0x2 SLOAD PUSH1 0x1 PUSH1 0x1 PUSH1 0xA0 SHL SUB AND CALLER EQ PUSH2 0x1093 JUMPI PUSH1 0x40 MLOAD PUSH3 0x461BCD PUSH1 0xE5 SHL DUP2 MSTORE PUSH1 0x4 ADD PUSH2 0x378 SWAP1 PUSH2 0x1E7E JUMP JUMPDEST PUSH0 DUP3 DUP2 MSTORE PUSH1 0x5 PUSH1 0x20 MSTORE PUSH1 0x40 DUP2 KECCAK256 SLOAD SWAP1 SUB PUSH2 0x10E4 JUMPI PUSH1 0x40 MLOAD PUSH3 0x461BCD PUSH1 0xE5 SHL DUP2 MSTORE PUSH1 0x20 PUSH1 0x4 DUP3 ADD MSTORE PUSH1 0x12 PUSH1 0x24 DUP3 ADD MSTORE PUSH18 0x18D85C88191BD95CC81B9BDD08195E1A5CDD PUSH1 0x72 SHL PUSH1 0x44 DUP3 ADD MSTORE PUSH1 0x64 ADD PUSH2 0x378 JUMP JUMPDEST PUSH0 DUP3 DUP2 MSTORE PUSH1 0x5 PUSH1 0x20 MSTORE PUSH1 0x40 SWAP1 KECCAK256 PUSH1 0x3 ADD DUP1 SLOAD DUP3 SWAP2 SWAP1 PUSH1 0xFF NOT AND PUSH1 0x1 DUP4 PUSH1 0x2 DUP2 GT ISZERO PUSH2 0x1111 JUMPI PUSH2 0x1111 PUSH2 0x194C JUMP JUMPDEST MUL OR SWAP1 SSTORE POP DUP2 PUSH32 0xA2038BADC9C4004A10F632052C54B0011BB307C2CADC65F22071F61FFD106633 DUP3 PUSH1 0x40 MLOAD PUSH2 0x1146 SWAP2 SWAP1 PUSH2 0x1F30 JUMP JUMPDEST PUSH1 0x40 MLOAD DUP1 SWAP2 SUB SWAP1 LOG2 POP POP JUMP JUMPDEST PUSH2 0x1196 PUSH1 0x40 MLOAD DUP1 PUSH1 0xE0 ADD PUSH1 0x40 MSTORE DUP1 PUSH0 PUSH1 0x1 PUSH1 0x1 PUSH1 0xA0 SHL SUB AND DUP2 MSTORE PUSH1 0x20 ADD PUSH1 0x60 DUP2 MSTORE PUSH1 0x20 ADD PUSH1 0x60 DUP2 MSTORE PUSH1 0x20 ADD PUSH0 DUP2 MSTORE PUSH1 0x20 ADD PUSH0 DUP2 MSTORE PUSH1 0x20 ADD PUSH0 DUP2 MSTORE PUSH1 0x20 ADD PUSH0 DUP2 MSTORE POP SWAP1 JUMP JUMPDEST PUSH2 0x119F DUP3 PUSH2 0x177D JUMP JUMPDEST PUSH2 0x11BB JUMPI PUSH1 0x40 MLOAD PUSH3 0x461BCD PUSH1 0xE5 SHL DUP2 MSTORE PUSH1 0x4 ADD PUSH2 0x378 SWAP1 PUSH2 0x1F3E JUMP JUMPDEST PUSH1 0x1 PUSH1 0x1 PUSH1 0xA0 SHL SUB DUP1 DUP4 AND PUSH0 SWAP1 DUP2 MSTORE PUSH1 0x4 PUSH1 0x20 SWAP1 DUP2 MSTORE PUSH1 0x40 SWAP2 DUP3 SWAP1 KECCAK256 DUP3 MLOAD PUSH1 0xE0 DUP2 ADD SWAP1 SWAP4 MSTORE DUP1 SLOAD SWAP1 SWAP4 AND DUP3 MSTORE PUSH1 0x1 DUP4 ADD DUP1 SLOAD SWAP3 SWAP4 SWAP3 SWAP2 DUP5 ADD SWAP2 PUSH2 0x11FD SWAP1 PUSH2 0x1C54 JUMP JUMPDEST DUP1 PUSH1 0x1F ADD PUSH1 0x20 DUP1 SWAP2 DIV MUL PUSH1 0x20 ADD PUSH1 0x40 MLOAD SWAP1 DUP2 ADD PUSH1 0x40 MSTORE DUP1 SWAP3 SWAP2 SWAP1 DUP2 DUP2 MSTORE PUSH1 0x20 ADD DUP3 DUP1 SLOAD PUSH2 0x1229 SWAP1 PUSH2 0x1C54 JUMP JUMPDEST DUP1 ISZERO PUSH2 0x1274 JUMPI DUP1 PUSH1 0x1F LT PUSH2 0x124B JUMPI PUSH2 0x100 DUP1 DUP4 SLOAD DIV MUL DUP4 MSTORE SWAP2 PUSH1 0x20 ADD SWAP2 PUSH2 0x1274 JUMP JUMPDEST DUP3 ADD SWAP2 SWAP1 PUSH0 MSTORE PUSH1 0x20 PUSH0 KECCAK256 SWAP1 JUMPDEST DUP2 SLOAD DUP2 MSTORE SWAP1 PUSH1 0x1 ADD SWAP1 PUSH1 0x20 ADD DUP1 DUP4 GT PUSH2 0x1257 JUMPI DUP3 SWAP1 SUB PUSH1 0x1F AND DUP3 ADD SWAP2 JUMPDEST POP POP POP POP POP DUP2 MSTORE PUSH1 0x20 ADD PUSH1 0x2 DUP3 ADD DUP1 SLOAD PUSH2 0x128D SWAP1 PUSH2 0x1C54 JUMP JUMPDEST DUP1 PUSH1 0x1F ADD PUSH1 0x20 DUP1 SWAP2 DIV MUL PUSH1 0x20 ADD PUSH1 0x40 MLOAD SWAP1 DUP2 ADD PUSH1 0x40 MSTORE DUP1 SWAP3 SWAP2 SWAP1 DUP2 DUP2 MSTORE PUSH1 0x20 ADD DUP3 DUP1 SLOAD PUSH2 0x12B9 SWAP1 PUSH2 0x1C54 JUMP JUMPDEST DUP1 ISZERO PUSH2 0x1304 JUMPI DUP1 PUSH1 0x1F LT PUSH2 0x12DB JUMPI PUSH2 0x100 DUP1 DUP4 SLOAD DIV MUL DUP4 MSTORE SWAP2 PUSH1 0x20 ADD SWAP2 PUSH2 0x1304 JUMP JUMPDEST DUP3 ADD SWAP2 SWAP1 PUSH0 MSTORE PUSH1 0x20 PUSH0 KECCAK256 SWAP1 JUMPDEST DUP2 SLOAD DUP2 MSTORE SWAP1 PUSH1 0x1 ADD SWAP1 PUSH1 0x20 ADD DUP1 DUP4 GT PUSH2 0x12E7 JUMPI DUP3 SWAP1 SUB PUSH1 0x1F AND DUP3 ADD SWAP2 JUMPDEST POP POP POP POP POP DUP2 MSTORE PUSH1 0x20 ADD PUSH1 0x3 DUP3 ADD SLOAD DUP2 MSTORE PUSH1 0x20 ADD PUSH1 0x4 DUP3 ADD SLOAD DUP2 MSTORE PUSH1 0x20 ADD PUSH1 0x5 DUP3 ADD SLOAD DUP2 MSTORE PUSH1 0x20 ADD PUSH1 0x6 DUP3 ADD SLOAD DUP2 MSTORE POP POP SWAP1 POP SWAP2 SWAP1 POP JUMP JUMPDEST PUSH2 0x1345 CALLER PUSH2 0x177D JUMP JUMPDEST PUSH2 0x1361 JUMPI PUSH1 0x40 MLOAD PUSH3 0x461BCD PUSH1 0xE5 SHL DUP2 MSTORE PUSH1 0x4 ADD PUSH2 0x378 SWAP1 PUSH2 0x1F3E JUMP JUMPDEST CALLER PUSH0 SWAP1 DUP2 MSTORE PUSH1 0x4 PUSH1 0x20 DUP2 SWAP1 MSTORE PUSH1 0x40 DUP3 KECCAK256 ADD DUP1 SLOAD CALLVALUE SWAP3 SWAP1 PUSH2 0x1382 SWAP1 DUP5 SWAP1 PUSH2 0x1ED6 JUMP JUMPDEST SWAP1 SWAP2 SSTORE POP POP PUSH1 0x40 MLOAD CALLVALUE DUP2 MSTORE CALLER SWAP1 PUSH32 0xE1FFFCC4923D04B559F4D29A8BFC6CDA04EB5B0D3C460751C2402C5C5CC9109C SWAP1 PUSH1 0x20 ADD PUSH1 0x40 MLOAD DUP1 SWAP2 SUB SWAP1 LOG2 JUMP JUMPDEST PUSH1 0x2 SLOAD PUSH1 0x1 PUSH1 0x1 PUSH1 0xA0 SHL SUB AND CALLER EQ PUSH2 0x13E8 JUMPI PUSH1 0x40 MLOAD PUSH3 0x461BCD PUSH1 0xE5 SHL DUP2 MSTORE PUSH1 0x4 ADD PUSH2 0x378 SWAP1 PUSH2 0x1E7E JUMP JUMPDEST PUSH0 DUP8 DUP2 MSTORE PUSH1 0x5 PUSH1 0x20 MSTORE PUSH1 0x40 DUP2 KECCAK256 SLOAD SWAP1 SUB PUSH2 0x1444 JUMPI PUSH1 0x40 MLOAD PUSH3 0x461BCD PUSH1 0xE5 SHL DUP2 MSTORE PUSH1 0x20 PUSH1 0x4 DUP3 ADD DUP2 SWAP1 MSTORE PUSH1 0x24 DUP3 ADD MSTORE PUSH32 0x436172207769746820676976656E20494420646F6573206E6F74206578697374 PUSH1 0x44 DUP3 ADD MSTORE PUSH1 0x64 ADD PUSH2 0x378 JUMP JUMPDEST PUSH0 DUP8 DUP2 MSTORE PUSH1 0x5 PUSH1 0x20 MSTORE PUSH1 0x40 SWAP1 KECCAK256 DUP6 ISZERO PUSH2 0x1468 JUMPI PUSH1 0x1 DUP2 ADD PUSH2 0x1466 DUP8 DUP10 DUP4 PUSH2 0x1F6B JUMP JUMPDEST POP JUMPDEST DUP4 ISZERO PUSH2 0x147F JUMPI PUSH1 0x2 DUP2 ADD PUSH2 0x147D DUP6 DUP8 DUP4 PUSH2 0x1F6B JUMP JUMPDEST POP JUMPDEST DUP3 ISZERO PUSH2 0x148D JUMPI PUSH1 0x4 DUP2 ADD DUP4 SWAP1 SSTORE JUMPDEST DUP2 ISZERO PUSH2 0x149B JUMPI PUSH1 0x5 DUP2 ADD DUP3 SWAP1 SSTORE JUMPDEST DUP8 PUSH32 0x10E3E3A462A9F4C167783D47719E646C87B1A773B083FB5EEF04A076E887079C DUP3 PUSH1 0x1 ADD DUP4 PUSH1 0x2 ADD DUP5 PUSH1 0x4 ADD SLOAD DUP6 PUSH1 0x5 ADD SLOAD PUSH1 0x40 MLOAD PUSH2 0x14DF SWAP5 SWAP4 SWAP3 SWAP2 SWAP1 PUSH2 0x2025 JUMP JUMPDEST PUSH1 0x40 MLOAD DUP1 SWAP2 SUB SWAP1 LOG2 POP POP POP POP POP POP POP POP JUMP JUMPDEST PUSH2 0x14FA CALLER PUSH2 0x177D JUMP JUMPDEST PUSH2 0x1516 JUMPI PUSH1 0x40 MLOAD PUSH3 0x461BCD PUSH1 0xE5 SHL DUP2 MSTORE PUSH1 0x4 ADD PUSH2 0x378 SWAP1 PUSH2 0x1F3E JUMP JUMPDEST CALLER PUSH0 SWAP1 DUP2 MSTORE PUSH1 0x4 PUSH1 0x20 DUP2 SWAP1 MSTORE PUSH1 0x40 SWAP1 SWAP2 KECCAK256 PUSH1 0x5 DUP2 ADD SLOAD SWAP2 ADD SLOAD DUP2 PUSH2 0x156F JUMPI PUSH1 0x40 MLOAD PUSH3 0x461BCD PUSH1 0xE5 SHL DUP2 MSTORE PUSH1 0x20 PUSH1 0x4 DUP3 ADD MSTORE PUSH1 0x10 PUSH1 0x24 DUP3 ADD MSTORE PUSH16 0x1D5CD95C881A185CC81B9BC81919589D PUSH1 0x82 SHL PUSH1 0x44 DUP3 ADD MSTORE PUSH1 0x64 ADD PUSH2 0x378 JUMP JUMPDEST DUP2 DUP2 LT ISZERO PUSH2 0x15B6 JUMPI PUSH1 0x40 MLOAD PUSH3 0x461BCD PUSH1 0xE5 SHL DUP2 MSTORE PUSH1 0x20 PUSH1 0x4 DUP3 ADD MSTORE PUSH1 0x14 PUSH1 0x24 DUP3 ADD MSTORE PUSH20 0x496E73756666696369656E742062616C616E6365 PUSH1 0x60 SHL PUSH1 0x44 DUP3 ADD MSTORE PUSH1 0x64 ADD PUSH2 0x378 JUMP JUMPDEST CALLER PUSH0 SWAP1 DUP2 MSTORE PUSH1 0x4 PUSH1 0x20 DUP2 SWAP1 MSTORE PUSH1 0x40 DUP3 KECCAK256 ADD DUP1 SLOAD DUP5 SWAP1 SUB SWAP1 SSTORE PUSH1 0x3 DUP1 SLOAD DUP5 SWAP3 SWAP1 PUSH2 0x15E0 SWAP1 DUP5 SWAP1 PUSH2 0x1ED6 JUMP JUMPDEST SWAP1 SWAP2 SSTORE POP POP CALLER PUSH0 DUP2 DUP2 MSTORE PUSH1 0x4 PUSH1 0x20 MSTORE PUSH1 0x40 DUP1 DUP3 KECCAK256 PUSH1 0x5 ADD SWAP2 SWAP1 SWAP2 SSTORE MLOAD PUSH32 0x3A2D0E41C506B136330C6E5E0295CCBF0966DAECE99BFE7C89020CC01DBFB8D6 SWAP1 PUSH2 0x1146 SWAP1 DUP6 DUP2 MSTORE PUSH1 0x20 ADD SWAP1 JUMP JUMPDEST PUSH2 0x1633 PUSH2 0x17BF JUMP JUMPDEST PUSH2 0x163C CALLER PUSH2 0x177D JUMP JUMPDEST PUSH2 0x1658 JUMPI PUSH1 0x40 MLOAD PUSH3 0x461BCD PUSH1 0xE5 SHL DUP2 MSTORE PUSH1 0x4 ADD PUSH2 0x378 SWAP1 PUSH2 0x1F3E JUMP JUMPDEST CALLER PUSH0 SWAP1 DUP2 MSTORE PUSH1 0x4 PUSH1 0x20 DUP2 SWAP1 MSTORE PUSH1 0x40 SWAP1 SWAP2 KECCAK256 ADD SLOAD DUP2 DUP2 GT PUSH2 0x16B1 JUMPI PUSH1 0x40 MLOAD PUSH3 0x461BCD PUSH1 0xE5 SHL DUP2 MSTORE PUSH1 0x20 PUSH1 0x4 DUP3 ADD MSTORE PUSH1 0x14 PUSH1 0x24 DUP3 ADD MSTORE PUSH20 0x496E73756666696369656E742062616C616E6365 PUSH1 0x60 SHL PUSH1 0x44 DUP3 ADD MSTORE PUSH1 0x64 ADD PUSH2 0x378 JUMP JUMPDEST PUSH1 0x40 MLOAD SWAP1 DUP3 SWAP1 SUB SWAP1 PUSH0 SWAP1 CALLER SWAP1 DUP5 SWAP1 DUP4 DUP2 DUP2 DUP2 DUP6 DUP8 GAS CALL SWAP3 POP POP POP RETURNDATASIZE DUP1 PUSH0 DUP2 EQ PUSH2 0x16F5 JUMPI PUSH1 0x40 MLOAD SWAP2 POP PUSH1 0x1F NOT PUSH1 0x3F RETURNDATASIZE ADD AND DUP3 ADD PUSH1 0x40 MSTORE RETURNDATASIZE DUP3 MSTORE RETURNDATASIZE PUSH0 PUSH1 0x20 DUP5 ADD RETURNDATACOPY PUSH2 0x16FA JUMP JUMPDEST PUSH1 0x60 SWAP2 POP JUMPDEST POP POP SWAP1 POP DUP1 PUSH2 0x173D JUMPI PUSH1 0x40 MLOAD PUSH3 0x461BCD PUSH1 0xE5 SHL DUP2 MSTORE PUSH1 0x20 PUSH1 0x4 DUP3 ADD MSTORE PUSH1 0xF PUSH1 0x24 DUP3 ADD MSTORE PUSH15 0x151C985B9CD9995C8811985A5B1959 PUSH1 0x8A SHL PUSH1 0x44 DUP3 ADD MSTORE PUSH1 0x64 ADD PUSH2 0x378 JUMP JUMPDEST PUSH1 0x40 MLOAD DUP4 DUP2 MSTORE CALLER SWAP1 PUSH32 0xDDC398B321237A8D40AC914388309C2F52A08C134E4DC4CE61E32F57CB7D80F1 SWAP1 PUSH1 0x20 ADD PUSH1 0x40 MLOAD DUP1 SWAP2 SUB SWAP1 LOG2 POP POP PUSH2 0xC59 PUSH1 0x1 PUSH0 SSTORE JUMP JUMPDEST PUSH1 0x1 PUSH1 0x1 PUSH1 0xA0 SHL SUB SWAP1 DUP2 AND PUSH0 SWAP1 DUP2 MSTORE PUSH1 0x4 PUSH1 0x20 MSTORE PUSH1 0x40 SWAP1 KECCAK256 SLOAD AND ISZERO ISZERO SWAP1 JUMP JUMPDEST PUSH0 DUP1 PUSH2 0x17A9 PUSH1 0x3C DUP6 PUSH2 0x205D JUMP JUMPDEST SWAP1 POP PUSH2 0x17B5 DUP4 DUP3 PUSH2 0x207C JUMP JUMPDEST SWAP2 POP POP JUMPDEST SWAP3 SWAP2 POP POP JUMP JUMPDEST PUSH1 0x2 PUSH0 SLOAD SUB PUSH2 0x17E1 JUMPI PUSH1 0x40 MLOAD PUSH4 0x3EE5AEB5 PUSH1 0xE0 SHL DUP2 MSTORE PUSH1 0x4 ADD PUSH1 0x40 MLOAD DUP1 SWAP2 SUB SWAP1 REVERT JUMPDEST PUSH1 0x2 PUSH0 SSTORE JUMP JUMPDEST PUSH1 0x40 MLOAD DUP1 PUSH1 0xC0 ADD PUSH1 0x40 MSTORE DUP1 PUSH0 DUP2 MSTORE PUSH1 0x20 ADD PUSH1 0x60 DUP2 MSTORE PUSH1 0x20 ADD PUSH1 0x60 DUP2 MSTORE PUSH1 0x20 ADD PUSH0 PUSH1 0x2 DUP2 GT ISZERO PUSH2 0x1818 JUMPI PUSH2 0x1818 PUSH2 0x194C JUMP JUMPDEST DUP2 MSTORE PUSH1 0x20 ADD PUSH0 DUP2 MSTORE PUSH1 0x20 ADD PUSH0 DUP2 MSTORE POP SWAP1 JUMP JUMPDEST PUSH0 DUP1 DUP4 PUSH1 0x1F DUP5 ADD SLT PUSH2 0x183A JUMPI PUSH0 DUP1 REVERT JUMPDEST POP DUP2 CALLDATALOAD PUSH8 0xFFFFFFFFFFFFFFFF DUP2 GT ISZERO PUSH2 0x1851 JUMPI PUSH0 DUP1 REVERT JUMPDEST PUSH1 0x20 DUP4 ADD SWAP2 POP DUP4 PUSH1 0x20 DUP3 DUP6 ADD ADD GT ISZERO PUSH2 0x1868 JUMPI PUSH0 DUP1 REVERT JUMPDEST SWAP3 POP SWAP3 SWAP1 POP JUMP JUMPDEST PUSH0 DUP1 PUSH0 DUP1 PUSH1 0x40 DUP6 DUP8 SUB SLT ISZERO PUSH2 0x1882 JUMPI PUSH0 DUP1 REVERT JUMPDEST DUP5 CALLDATALOAD PUSH8 0xFFFFFFFFFFFFFFFF DUP1 DUP3 GT ISZERO PUSH2 0x1899 JUMPI PUSH0 DUP1 REVERT JUMPDEST PUSH2 0x18A5 DUP9 DUP4 DUP10 ADD PUSH2 0x182A JUMP JUMPDEST SWAP1 SWAP7 POP SWAP5 POP PUSH1 0x20 DUP8 ADD CALLDATALOAD SWAP2 POP DUP1 DUP3 GT ISZERO PUSH2 0x18BD JUMPI PUSH0 DUP1 REVERT JUMPDEST POP PUSH2 0x18CA DUP8 DUP3 DUP9 ADD PUSH2 0x182A JUMP JUMPDEST SWAP6 SWAP9 SWAP5 SWAP8 POP SWAP6 POP POP POP POP JUMP JUMPDEST DUP1 CALLDATALOAD PUSH1 0x3 DUP2 LT PUSH2 0x18E4 JUMPI PUSH0 DUP1 REVERT JUMPDEST SWAP2 SWAP1 POP JUMP JUMPDEST PUSH0 PUSH1 0x20 DUP3 DUP5 SUB SLT ISZERO PUSH2 0x18F9 JUMPI PUSH0 DUP1 REVERT JUMPDEST PUSH2 0x1902 DUP3 PUSH2 0x18D6 JUMP JUMPDEST SWAP4 SWAP3 POP POP POP JUMP JUMPDEST PUSH0 DUP2 MLOAD DUP1 DUP5 MSTORE PUSH0 JUMPDEST DUP2 DUP2 LT ISZERO PUSH2 0x192D JUMPI PUSH1 0x20 DUP2 DUP6 ADD DUP2 ADD MLOAD DUP7 DUP4 ADD DUP3 ADD MSTORE ADD PUSH2 0x1911 JUMP JUMPDEST POP PUSH0 PUSH1 0x20 DUP3 DUP7 ADD ADD MSTORE PUSH1 0x20 PUSH1 0x1F NOT PUSH1 0x1F DUP4 ADD AND DUP6 ADD ADD SWAP2 POP POP SWAP3 SWAP2 POP POP JUMP JUMPDEST PUSH4 0x4E487B71 PUSH1 0xE0 SHL PUSH0 MSTORE PUSH1 0x21 PUSH1 0x4 MSTORE PUSH1 0x24 PUSH0 REVERT JUMPDEST PUSH1 0x3 DUP2 LT PUSH2 0x197C JUMPI PUSH4 0x4E487B71 PUSH1 0xE0 SHL PUSH0 MSTORE PUSH1 0x21 PUSH1 0x4 MSTORE PUSH1 0x24 PUSH0 REVERT JUMPDEST SWAP1 MSTORE JUMP JUMPDEST DUP1 MLOAD DUP3 MSTORE PUSH0 PUSH1 0x20 DUP3 ADD MLOAD PUSH1 0xC0 PUSH1 0x20 DUP6 ADD MSTORE PUSH2 0x199E PUSH1 0xC0 DUP6 ADD DUP3 PUSH2 0x1909 JUMP JUMPDEST SWAP1 POP PUSH1 0x40 DUP4 ADD MLOAD DUP5 DUP3 SUB PUSH1 0x40 DUP7 ADD MSTORE PUSH2 0x19B7 DUP3 DUP3 PUSH2 0x1909 JUMP JUMPDEST SWAP2 POP POP PUSH1 0x60 DUP4 ADD MLOAD PUSH2 0x19CC PUSH1 0x60 DUP7 ADD DUP3 PUSH2 0x1960 JUMP JUMPDEST POP PUSH1 0x80 DUP4 ADD MLOAD PUSH1 0x80 DUP6 ADD MSTORE PUSH1 0xA0 DUP4 ADD MLOAD PUSH1 0xA0 DUP6 ADD MSTORE DUP1 SWAP2 POP POP SWAP3 SWAP2 POP POP JUMP JUMPDEST PUSH0 PUSH1 0x20 DUP1 DUP4 ADD PUSH1 0x20 DUP5 MSTORE DUP1 DUP6 MLOAD DUP1 DUP4 MSTORE PUSH1 0x40 DUP7 ADD SWAP2 POP PUSH1 0x40 DUP2 PUSH1 0x5 SHL DUP8 ADD ADD SWAP3 POP PUSH1 0x20 DUP8 ADD PUSH0 JUMPDEST DUP3 DUP2 LT ISZERO PUSH2 0x1A40 JUMPI PUSH1 0x3F NOT DUP9 DUP7 SUB ADD DUP5 MSTORE PUSH2 0x1A2E DUP6 DUP4 MLOAD PUSH2 0x1980 JUMP JUMPDEST SWAP5 POP SWAP3 DUP6 ADD SWAP3 SWAP1 DUP6 ADD SWAP1 PUSH1 0x1 ADD PUSH2 0x1A12 JUMP JUMPDEST POP SWAP3 SWAP8 SWAP7 POP POP POP POP POP POP POP JUMP JUMPDEST PUSH0 PUSH1 0x20 DUP3 DUP5 SUB SLT ISZERO PUSH2 0x1A5D JUMPI PUSH0 DUP1 REVERT JUMPDEST DUP2 CALLDATALOAD PUSH1 0x1 PUSH1 0x1 PUSH1 0xA0 SHL SUB DUP2 AND DUP2 EQ PUSH2 0x1902 JUMPI PUSH0 DUP1 REVERT JUMPDEST PUSH0 PUSH1 0x20 DUP3 DUP5 SUB SLT ISZERO PUSH2 0x1A83 JUMPI PUSH0 DUP1 REVERT JUMPDEST POP CALLDATALOAD SWAP2 SWAP1 POP JUMP JUMPDEST PUSH0 DUP1 PUSH0 DUP1 PUSH0 DUP1 PUSH1 0x80 DUP8 DUP10 SUB SLT ISZERO PUSH2 0x1A9F JUMPI PUSH0 DUP1 REVERT JUMPDEST DUP7 CALLDATALOAD PUSH8 0xFFFFFFFFFFFFFFFF DUP1 DUP3 GT ISZERO PUSH2 0x1AB6 JUMPI PUSH0 DUP1 REVERT JUMPDEST PUSH2 0x1AC2 DUP11 DUP4 DUP12 ADD PUSH2 0x182A JUMP JUMPDEST SWAP1 SWAP9 POP SWAP7 POP PUSH1 0x20 DUP10 ADD CALLDATALOAD SWAP2 POP DUP1 DUP3 GT ISZERO PUSH2 0x1ADA JUMPI PUSH0 DUP1 REVERT JUMPDEST POP PUSH2 0x1AE7 DUP10 DUP3 DUP11 ADD PUSH2 0x182A JUMP JUMPDEST SWAP8 SWAP11 SWAP7 SWAP10 POP SWAP8 PUSH1 0x40 DUP2 ADD CALLDATALOAD SWAP7 PUSH1 0x60 SWAP1 SWAP2 ADD CALLDATALOAD SWAP6 POP SWAP4 POP POP POP POP JUMP JUMPDEST PUSH1 0x20 DUP2 MSTORE PUSH0 PUSH2 0x1902 PUSH1 0x20 DUP4 ADD DUP5 PUSH2 0x1980 JUMP JUMPDEST PUSH0 DUP1 PUSH1 0x40 DUP4 DUP6 SUB SLT ISZERO PUSH2 0x1B25 JUMPI PUSH0 DUP1 REVERT JUMPDEST DUP3 CALLDATALOAD SWAP2 POP PUSH2 0x1B35 PUSH1 0x20 DUP5 ADD PUSH2 0x18D6 JUMP JUMPDEST SWAP1 POP SWAP3 POP SWAP3 SWAP1 POP JUMP JUMPDEST PUSH1 0x20 DUP1 DUP3 MSTORE DUP3 MLOAD PUSH1 0x1 PUSH1 0x1 PUSH1 0xA0 SHL SUB AND DUP3 DUP3 ADD MSTORE DUP3 ADD MLOAD PUSH1 0xE0 PUSH1 0x40 DUP4 ADD MSTORE PUSH0 SWAP1 PUSH2 0x1B6C PUSH2 0x100 DUP5 ADD DUP3 PUSH2 0x1909 JUMP JUMPDEST SWAP1 POP PUSH1 0x40 DUP5 ADD MLOAD PUSH1 0x1F NOT DUP5 DUP4 SUB ADD PUSH1 0x60 DUP6 ADD MSTORE PUSH2 0x1B89 DUP3 DUP3 PUSH2 0x1909 JUMP JUMPDEST SWAP2 POP POP PUSH1 0x60 DUP5 ADD MLOAD PUSH1 0x80 DUP5 ADD MSTORE PUSH1 0x80 DUP5 ADD MLOAD PUSH1 0xA0 DUP5 ADD MSTORE PUSH1 0xA0 DUP5 ADD MLOAD PUSH1 0xC0 DUP5 ADD MSTORE PUSH1 0xC0 DUP5 ADD MLOAD PUSH1 0xE0 DUP5 ADD MSTORE DUP1 SWAP2 POP POP SWAP3 SWAP2 POP POP JUMP JUMPDEST PUSH0 DUP1 PUSH0 DUP1 PUSH0 DUP1 PUSH0 PUSH1 0xA0 DUP9 DUP11 SUB SLT ISZERO PUSH2 0x1BD4 JUMPI PUSH0 DUP1 REVERT JUMPDEST DUP8 CALLDATALOAD SWAP7 POP PUSH1 0x20 DUP9 ADD CALLDATALOAD PUSH8 0xFFFFFFFFFFFFFFFF DUP1 DUP3 GT ISZERO PUSH2 0x1BF2 JUMPI PUSH0 DUP1 REVERT JUMPDEST PUSH2 0x1BFE DUP12 DUP4 DUP13 ADD PUSH2 0x182A JUMP JUMPDEST SWAP1 SWAP9 POP SWAP7 POP PUSH1 0x40 DUP11 ADD CALLDATALOAD SWAP2 POP DUP1 DUP3 GT ISZERO PUSH2 0x1C16 JUMPI PUSH0 DUP1 REVERT JUMPDEST POP PUSH2 0x1C23 DUP11 DUP3 DUP12 ADD PUSH2 0x182A JUMP JUMPDEST SWAP9 SWAP12 SWAP8 SWAP11 POP SWAP6 SWAP9 SWAP6 SWAP8 SWAP7 PUSH1 0x60 DUP8 ADD CALLDATALOAD SWAP7 PUSH1 0x80 ADD CALLDATALOAD SWAP6 POP SWAP4 POP POP POP POP JUMP JUMPDEST PUSH4 0x4E487B71 PUSH1 0xE0 SHL PUSH0 MSTORE PUSH1 0x41 PUSH1 0x4 MSTORE PUSH1 0x24 PUSH0 REVERT JUMPDEST PUSH1 0x1 DUP2 DUP2 SHR SWAP1 DUP3 AND DUP1 PUSH2 0x1C68 JUMPI PUSH1 0x7F DUP3 AND SWAP2 POP JUMPDEST PUSH1 0x20 DUP3 LT DUP2 SUB PUSH2 0x1C86 JUMPI PUSH4 0x4E487B71 PUSH1 0xE0 SHL PUSH0 MSTORE PUSH1 0x22 PUSH1 0x4 MSTORE PUSH1 0x24 PUSH0 REVERT JUMPDEST POP SWAP2 SWAP1 POP JUMP JUMPDEST PUSH1 0x1F DUP3 GT ISZERO PUSH2 0x1CD3 JUMPI DUP1 PUSH0 MSTORE PUSH1 0x20 PUSH0 KECCAK256 PUSH1 0x1F DUP5 ADD PUSH1 0x5 SHR DUP2 ADD PUSH1 0x20 DUP6 LT ISZERO PUSH2 0x1CB1 JUMPI POP DUP1 JUMPDEST PUSH1 0x1F DUP5 ADD PUSH1 0x5 SHR DUP3 ADD SWAP2 POP JUMPDEST DUP2 DUP2 LT ISZERO PUSH2 0x1CD0 JUMPI PUSH0 DUP2 SSTORE PUSH1 0x1 ADD PUSH2 0x1CBD JUMP JUMPDEST POP POP JUMPDEST POP POP POP JUMP JUMPDEST DUP2 MLOAD PUSH8 0xFFFFFFFFFFFFFFFF DUP2 GT ISZERO PUSH2 0x1CF2 JUMPI PUSH2 0x1CF2 PUSH2 0x1C40 JUMP JUMPDEST PUSH2 0x1D06 DUP2 PUSH2 0x1D00 DUP5 SLOAD PUSH2 0x1C54 JUMP JUMPDEST DUP5 PUSH2 0x1C8C JUMP JUMPDEST PUSH1 0x20 DUP1 PUSH1 0x1F DUP4 GT PUSH1 0x1 DUP2 EQ PUSH2 0x1D39 JUMPI PUSH0 DUP5 ISZERO PUSH2 0x1D22 JUMPI POP DUP6 DUP4 ADD MLOAD JUMPDEST PUSH0 NOT PUSH1 0x3 DUP7 SWAP1 SHL SHR NOT AND PUSH1 0x1 DUP6 SWAP1 SHL OR DUP6 SSTORE PUSH2 0x1D90 JUMP JUMPDEST PUSH0 DUP6 DUP2 MSTORE PUSH1 0x20 DUP2 KECCAK256 PUSH1 0x1F NOT DUP7 AND SWAP2 JUMPDEST DUP3 DUP2 LT ISZERO PUSH2 0x1D67 JUMPI DUP9 DUP7 ADD MLOAD DUP3 SSTORE SWAP5 DUP5 ADD SWAP5 PUSH1 0x1 SWAP1 SWAP2 ADD SWAP1 DUP5 ADD PUSH2 0x1D48 JUMP JUMPDEST POP DUP6 DUP3 LT ISZERO PUSH2 0x1D84 JUMPI DUP8 DUP6 ADD MLOAD PUSH0 NOT PUSH1 0x3 DUP9 SWAP1 SHL PUSH1 0xF8 AND SHR NOT AND DUP2 SSTORE JUMPDEST POP POP PUSH1 0x1 DUP5 PUSH1 0x1 SHL ADD DUP6 SSTORE JUMPDEST POP POP POP POP POP POP JUMP JUMPDEST PUSH0 DUP2 SLOAD PUSH2 0x1DA4 DUP2 PUSH2 0x1C54 JUMP JUMPDEST DUP1 DUP6 MSTORE PUSH1 0x20 PUSH1 0x1 DUP4 DUP2 AND DUP1 ISZERO PUSH2 0x1DC1 JUMPI PUSH1 0x1 DUP2 EQ PUSH2 0x1DDB JUMPI PUSH2 0x1E06 JUMP JUMPDEST PUSH1 0xFF NOT DUP6 AND DUP9 DUP5 ADD MSTORE DUP4 ISZERO ISZERO PUSH1 0x5 SHL DUP9 ADD DUP4 ADD SWAP6 POP PUSH2 0x1E06 JUMP JUMPDEST DUP7 PUSH0 MSTORE DUP3 PUSH0 KECCAK256 PUSH0 JUMPDEST DUP6 DUP2 LT ISZERO PUSH2 0x1DFE JUMPI DUP2 SLOAD DUP11 DUP3 ADD DUP7 ADD MSTORE SWAP1 DUP4 ADD SWAP1 DUP5 ADD PUSH2 0x1DE3 JUMP JUMPDEST DUP10 ADD DUP5 ADD SWAP7 POP POP JUMPDEST POP POP POP POP POP SWAP3 SWAP2 POP POP JUMP JUMPDEST PUSH1 0x40 DUP2 MSTORE PUSH0 PUSH2 0x1E23 PUSH1 0x40 DUP4 ADD DUP6 PUSH2 0x1D98 JUMP JUMPDEST DUP3 DUP2 SUB PUSH1 0x20 DUP5 ADD MSTORE PUSH2 0x1E35 DUP2 DUP6 PUSH2 0x1D98 JUMP JUMPDEST SWAP6 SWAP5 POP POP POP POP POP JUMP JUMPDEST PUSH4 0x4E487B71 PUSH1 0xE0 SHL PUSH0 MSTORE PUSH1 0x11 PUSH1 0x4 MSTORE PUSH1 0x24 PUSH0 REVERT JUMPDEST PUSH0 PUSH1 0x1 DUP3 ADD PUSH2 0x1E63 JUMPI PUSH2 0x1E63 PUSH2 0x1E3E JUMP JUMPDEST POP PUSH1 0x1 ADD SWAP1 JUMP JUMPDEST PUSH4 0x4E487B71 PUSH1 0xE0 SHL PUSH0 MSTORE PUSH1 0x32 PUSH1 0x4 MSTORE PUSH1 0x24 PUSH0 REVERT JUMPDEST PUSH1 0x20 DUP1 DUP3 MSTORE PUSH1 0x25 SWAP1 DUP3 ADD MSTORE PUSH32 0x6F6E6C7920746865206F776E65722063616E2063616C6C20746869732066756E PUSH1 0x40 DUP3 ADD MSTORE PUSH5 0x31BA34B7B7 PUSH1 0xD9 SHL PUSH1 0x60 DUP3 ADD MSTORE PUSH1 0x80 ADD SWAP1 JUMP JUMPDEST DUP2 DUP2 SUB DUP2 DUP2 GT ISZERO PUSH2 0x17B9 JUMPI PUSH2 0x17B9 PUSH2 0x1E3E JUMP JUMPDEST DUP1 DUP3 ADD DUP1 DUP3 GT ISZERO PUSH2 0x17B9 JUMPI PUSH2 0x17B9 PUSH2 0x1E3E JUMP JUMPDEST PUSH1 0xA0 DUP2 MSTORE PUSH0 PUSH2 0x1EFB PUSH1 0xA0 DUP4 ADD DUP9 PUSH2 0x1D98 JUMP JUMPDEST DUP3 DUP2 SUB PUSH1 0x20 DUP5 ADD MSTORE PUSH2 0x1F0D DUP2 DUP9 PUSH2 0x1D98 JUMP JUMPDEST SWAP2 POP POP PUSH2 0x1F1D PUSH1 0x40 DUP4 ADD DUP7 PUSH2 0x1960 JUMP JUMPDEST PUSH1 0x60 DUP3 ADD SWAP4 SWAP1 SWAP4 MSTORE PUSH1 0x80 ADD MSTORE SWAP4 SWAP3 POP POP POP JUMP JUMPDEST PUSH1 0x20 DUP2 ADD PUSH2 0x17B9 DUP3 DUP5 PUSH2 0x1960 JUMP JUMPDEST PUSH1 0x20 DUP1 DUP3 MSTORE PUSH1 0x13 SWAP1 DUP3 ADD MSTORE PUSH19 0x1D5CD95C88191BD95CC81B9BDD08195E1A5CDD PUSH1 0x6A SHL PUSH1 0x40 DUP3 ADD MSTORE PUSH1 0x60 ADD SWAP1 JUMP JUMPDEST PUSH8 0xFFFFFFFFFFFFFFFF DUP4 GT ISZERO PUSH2 0x1F83 JUMPI PUSH2 0x1F83 PUSH2 0x1C40 JUMP JUMPDEST PUSH2 0x1F97 DUP4 PUSH2 0x1F91 DUP4 SLOAD PUSH2 0x1C54 JUMP JUMPDEST DUP4 PUSH2 0x1C8C JUMP JUMPDEST PUSH0 PUSH1 0x1F DUP5 GT PUSH1 0x1 DUP2 EQ PUSH2 0x1FC8 JUMPI PUSH0 DUP6 ISZERO PUSH2 0x1FB1 JUMPI POP DUP4 DUP3 ADD CALLDATALOAD JUMPDEST PUSH0 NOT PUSH1 0x3 DUP8 SWAP1 SHL SHR NOT AND PUSH1 0x1 DUP7 SWAP1 SHL OR DUP4 SSTORE PUSH2 0x1CD0 JUMP JUMPDEST PUSH0 DUP4 DUP2 MSTORE PUSH1 0x20 DUP2 KECCAK256 PUSH1 0x1F NOT DUP8 AND SWAP2 JUMPDEST DUP3 DUP2 LT ISZERO PUSH2 0x1FF7 JUMPI DUP7 DUP6 ADD CALLDATALOAD DUP3 SSTORE PUSH1 0x20 SWAP5 DUP6 ADD SWAP5 PUSH1 0x1 SWAP1 SWAP3 ADD SWAP2 ADD PUSH2 0x1FD7 JUMP JUMPDEST POP DUP7 DUP3 LT ISZERO PUSH2 0x2013 JUMPI PUSH0 NOT PUSH1 0xF8 DUP9 PUSH1 0x3 SHL AND SHR NOT DUP5 DUP8 ADD CALLDATALOAD AND DUP2 SSTORE JUMPDEST POP POP PUSH1 0x1 DUP6 PUSH1 0x1 SHL ADD DUP4 SSTORE POP POP POP POP POP JUMP JUMPDEST PUSH1 0x80 DUP2 MSTORE PUSH0 PUSH2 0x2037 PUSH1 0x80 DUP4 ADD DUP8 PUSH2 0x1D98 JUMP JUMPDEST DUP3 DUP2 SUB PUSH1 0x20 DUP5 ADD MSTORE PUSH2 0x2049 DUP2 DUP8 PUSH2 0x1D98 JUMP JUMPDEST PUSH1 0x40 DUP5 ADD SWAP6 SWAP1 SWAP6 MSTORE POP POP PUSH1 0x60 ADD MSTORE SWAP3 SWAP2 POP POP JUMP JUMPDEST PUSH0 DUP3 PUSH2 0x2077 JUMPI PUSH4 0x4E487B71 PUSH1 0xE0 SHL PUSH0 MSTORE PUSH1 0x12 PUSH1 0x4 MSTORE PUSH1 0x24 PUSH0 REVERT JUMPDEST POP DIV SWAP1 JUMP JUMPDEST DUP1 DUP3 MUL DUP2 ISZERO DUP3 DUP3 DIV DUP5 EQ OR PUSH2 0x17B9 JUMPI PUSH2 0x17B9 PUSH2 0x1E3E JUMP INVALID LOG2 PUSH5 0x6970667358 0x22 SLT KECCAK256 SWAP13 PUSH11 0x1F86BCB9895E065F82402D ORIGIN 0x2C 0xE5 DUP3 0xEB 0x5E PUSH29 0x3138FD9B2CC8352451206E5464736F6C63430008160033000000000000 "
		},
		"gasEstimates": {
			"creation": {
				"codeDepositCost": "1678600",
				"executionCost": "58116",
				"totalCost": "1736716"
			},
			"external": {
				"addCar(string,string,uint256,uint256)": "infinite",
				"addUser(string,string)": "infinite",
				"checkIn()": "infinite",
				"checkOut(uint256)": "79222",
				"deposit()": "28199",
				"editCarMetadata(uint256,string,string,uint256,uint256)": "infinite",
				"editCarStatus(uint256,uint8)": "30575",
				"getCarByStatus(uint8)": "infinite",
				"getContractBalance()": "2463",
				"getCurrentCount()": "2401",
				"getOwner()": "2345",
				"getTotalPayment()": "4564",
				"getcar(uint256)": "infinite",
				"getuser(address)": "infinite",
				"makePayment()": "61926",
				"setOwner(address)": "26742",
				"withdrawBalance(uint256)": "infinite",
				"withdrawOwnerBalance(uint256)": "infinite"
			},
			"internal": {
				"calculateDebt(uint256,uint256)": "infinite",
				"isUser(address)": "2219"
			}
		},
		"methodIdentifiers": {
			"addCar(string,string,uint256,uint256)": "4865bed2",
			"addUser(string,string)": "079eaf34",
			"checkIn()": "183ff085",
			"checkOut(uint256)": "1bd2eeee",
			"deposit()": "d0e30db0",
			"editCarMetadata(uint256,string,string,uint256,uint256)": "d8546f49",
			"editCarStatus(uint256,uint8)": "9a43da73",
			"getCarByStatus(uint8)": "0a411527",
			"getContractBalance()": "6f9fb98a",
			"getCurrentCount()": "dd51babf",
			"getOwner()": "893d20e8",
			"getTotalPayment()": "6cb4b69d",
			"getcar(uint256)": "61f05b05",
			"getuser(address)": "cd571874",
			"makePayment()": "d8d79700",
			"setOwner(address)": "13af4035",
			"withdrawBalance(uint256)": "da76d5cd",
			"withdrawOwnerBalance(uint256)": "3c69c657"
		}
	},
	"abi": [
		{
			"inputs": [],
			"stateMutability": "nonpayable",
			"type": "constructor"
		},
		{
			"inputs": [],
			"name": "ReentrancyGuardReentrantCall",
			"type": "error"
		},
		{
			"anonymous": false,
			"inputs": [
				{
					"indexed": true,
					"internalType": "address",
					"name": "walletAddress",
					"type": "address"
				},
				{
					"indexed": false,
					"internalType": "uint256",
					"name": "amount",
					"type": "uint256"
				}
			],
			"name": "BalanceWithdrawn",
			"type": "event"
		},
		{
			"anonymous": false,
			"inputs": [
				{
					"indexed": true,
					"internalType": "uint256",
					"name": "id",
					"type": "uint256"
				},
				{
					"indexed": false,
					"internalType": "string",
					"name": "_name",
					"type": "string"
				},
				{
					"indexed": false,
					"internalType": "string",
					"name": "imgUrl",
					"type": "string"
				},
				{
					"indexed": false,
					"internalType": "enum storeData.Status",
					"name": "status",
					"type": "uint8"
				},
				{
					"indexed": false,
					"internalType": "uint256",
					"name": "rentFee",
					"type": "uint256"
				},
				{
					"indexed": false,
					"internalType": "uint256",
					"name": "saleFee",
					"type": "uint256"
				}
			],
			"name": "CarAdded",
			"type": "event"
		},
		{
			"anonymous": false,
			"inputs": [
				{
					"indexed": true,
					"internalType": "uint256",
					"name": "id",
					"type": "uint256"
				},
				{
					"indexed": false,
					"internalType": "string",
					"name": "_name",
					"type": "string"
				},
				{
					"indexed": false,
					"internalType": "string",
					"name": "imgUrl",
					"type": "string"
				},
				{
					"indexed": false,
					"internalType": "uint256",
					"name": "rentFee",
					"type": "uint256"
				},
				{
					"indexed": false,
					"internalType": "uint256",
					"name": "saleFee",
					"type": "uint256"
				}
			],
			"name": "CarMetadataEdited",
			"type": "event"
		},
		{
			"anonymous": false,
			"inputs": [
				{
					"indexed": true,
					"internalType": "uint256",
					"name": "id",
					"type": "uint256"
				},
				{
					"indexed": false,
					"internalType": "enum storeData.Status",
					"name": "status",
					"type": "uint8"
				}
			],
			"name": "CarStatusEdited",
			"type": "event"
		},
		{
			"anonymous": false,
			"inputs": [
				{
					"indexed": true,
					"internalType": "address",
					"name": "walletAddress",
					"type": "address"
				},
				{
					"indexed": true,
					"internalType": "uint256",
					"name": "id",
					"type": "uint256"
				}
			],
			"name": "CheckIn",
			"type": "event"
		},
		{
			"anonymous": false,
			"inputs": [
				{
					"indexed": true,
					"internalType": "address",
					"name": "walletAddress",
					"type": "address"
				},
				{
					"indexed": true,
					"internalType": "uint256",
					"name": "id",
					"type": "uint256"
				}
			],
			"name": "CheckOut",
			"type": "event"
		},
		{
			"anonymous": false,
			"inputs": [
				{
					"indexed": true,
					"internalType": "address",
					"name": "walletAddress",
					"type": "address"
				},
				{
					"indexed": false,
					"internalType": "uint256",
					"name": "amount",
					"type": "uint256"
				}
			],
			"name": "Deposit",
			"type": "event"
		},
		{
			"anonymous": false,
			"inputs": [
				{
					"indexed": true,
					"internalType": "address",
					"name": "walletAddress",
					"type": "address"
				},
				{
					"indexed": false,
					"internalType": "uint256",
					"name": "amount",
					"type": "uint256"
				}
			],
			"name": "PaymentMade",
			"type": "event"
		},
		{
			"anonymous": false,
			"inputs": [
				{
					"indexed": true,
					"internalType": "address",
					"name": "walletAddress",
					"type": "address"
				},
				{
					"indexed": false,
					"internalType": "string",
					"name": "name",
					"type": "string"
				},
				{
					"indexed": false,
					"internalType": "string",
					"name": "lastname",
					"type": "string"
				}
			],
			"name": "UserAdded",
			"type": "event"
		},
		{
			"anonymous": false,
			"inputs": [
				{
					"indexed": true,
					"internalType": "address",
					"name": "walletAddress",
					"type": "address"
				},
				{
					"indexed": false,
					"internalType": "uint256",
					"name": "amount",
					"type": "uint256"
				}
			],
			"name": "Withdraw",
			"type": "event"
		},
		{
			"inputs": [
				{
					"internalType": "string",
					"name": "_name",
					"type": "string"
				},
				{
					"internalType": "string",
					"name": "url",
					"type": "string"
				},
				{
					"internalType": "uint256",
					"name": "rent",
					"type": "uint256"
				},
				{
					"internalType": "uint256",
					"name": "sale",
					"type": "uint256"
				}
			],
			"name": "addCar",
			"outputs": [],
			"stateMutability": "nonpayable",
			"type": "function"
		},
		{
			"inputs": [
				{
					"internalType": "string",
					"name": "name",
					"type": "string"
				},
				{
					"internalType": "string",
					"name": "lastname",
					"type": "string"
				}
			],
			"name": "addUser",
			"outputs": [],
			"stateMutability": "nonpayable",
			"type": "function"
		},
		{
			"inputs": [],
			"name": "checkIn",
			"outputs": [],
			"stateMutability": "nonpayable",
			"type": "function"
		},
		{
			"inputs": [
				{
					"internalType": "uint256",
					"name": "id",
					"type": "uint256"
				}
			],
			"name": "checkOut",
			"outputs": [],
			"stateMutability": "nonpayable",
			"type": "function"
		},
		{
			"inputs": [],
			"name": "deposit",
			"outputs": [],
			"stateMutability": "payable",
			"type": "function"
		},
		{
			"inputs": [
				{
					"internalType": "uint256",
					"name": "id",
					"type": "uint256"
				},
				{
					"internalType": "string",
					"name": "name",
					"type": "string"
				},
				{
					"internalType": "string",
					"name": "imgUrl",
					"type": "string"
				},
				{
					"internalType": "uint256",
					"name": "rentFee",
					"type": "uint256"
				},
				{
					"internalType": "uint256",
					"name": "saleFee",
					"type": "uint256"
				}
			],
			"name": "editCarMetadata",
			"outputs": [],
			"stateMutability": "nonpayable",
			"type": "function"
		},
		{
			"inputs": [
				{
					"internalType": "uint256",
					"name": "id",
					"type": "uint256"
				},
				{
					"internalType": "enum storeData.Status",
					"name": "status",
					"type": "uint8"
				}
			],
			"name": "editCarStatus",
			"outputs": [],
			"stateMutability": "nonpayable",
			"type": "function"
		},
		{
			"inputs": [
				{
					"internalType": "enum storeData.Status",
					"name": "_status",
					"type": "uint8"
				}
			],
			"name": "getCarByStatus",
			"outputs": [
				{
					"components": [
						{
							"internalType": "uint256",
							"name": "id",
							"type": "uint256"
						},
						{
							"internalType": "string",
							"name": "_name",
							"type": "string"
						},
						{
							"internalType": "string",
							"name": "imgUrl",
							"type": "string"
						},
						{
							"internalType": "enum storeData.Status",
							"name": "status",
							"type": "uint8"
						},
						{
							"internalType": "uint256",
							"name": "rentFee",
							"type": "uint256"
						},
						{
							"internalType": "uint256",
							"name": "saleFee",
							"type": "uint256"
						}
					],
					"internalType": "struct storeData.Car[]",
					"name": "",
					"type": "tuple[]"
				}
			],
			"stateMutability": "view",
			"type": "function"
		},
		{
			"inputs": [],
			"name": "getContractBalance",
			"outputs": [
				{
					"internalType": "uint256",
					"name": "",
					"type": "uint256"
				}
			],
			"stateMutability": "view",
			"type": "function"
		},
		{
			"inputs": [],
			"name": "getCurrentCount",
			"outputs": [
				{
					"internalType": "uint256",
					"name": "",
					"type": "uint256"
				}
			],
			"stateMutability": "view",
			"type": "function"
		},
		{
			"inputs": [],
			"name": "getOwner",
			"outputs": [
				{
					"internalType": "address",
					"name": "",
					"type": "address"
				}
			],
			"stateMutability": "view",
			"type": "function"
		},
		{
			"inputs": [],
			"name": "getTotalPayment",
			"outputs": [
				{
					"internalType": "uint256",
					"name": "",
					"type": "uint256"
				}
			],
			"stateMutability": "view",
			"type": "function"
		},
		{
			"inputs": [
				{
					"internalType": "uint256",
					"name": "id",
					"type": "uint256"
				}
			],
			"name": "getcar",
			"outputs": [
				{
					"components": [
						{
							"internalType": "uint256",
							"name": "id",
							"type": "uint256"
						},
						{
							"internalType": "string",
							"name": "_name",
							"type": "string"
						},
						{
							"internalType": "string",
							"name": "imgUrl",
							"type": "string"
						},
						{
							"internalType": "enum storeData.Status",
							"name": "status",
							"type": "uint8"
						},
						{
							"internalType": "uint256",
							"name": "rentFee",
							"type": "uint256"
						},
						{
							"internalType": "uint256",
							"name": "saleFee",
							"type": "uint256"
						}
					],
					"internalType": "struct storeData.Car",
					"name": "",
					"type": "tuple"
				}
			],
			"stateMutability": "view",
			"type": "function"
		},
		{
			"inputs": [
				{
					"internalType": "address",
					"name": "walletAddress",
					"type": "address"
				}
			],
			"name": "getuser",
			"outputs": [
				{
					"components": [
						{
							"internalType": "address",
							"name": "walletAddress",
							"type": "address"
						},
						{
							"internalType": "string",
							"name": "name",
							"type": "string"
						},
						{
							"internalType": "string",
							"name": "lastname",
							"type": "string"
						},
						{
							"internalType": "uint256",
							"name": "rentedCarId",
							"type": "uint256"
						},
						{
							"internalType": "uint256",
							"name": "balance",
							"type": "uint256"
						},
						{
							"internalType": "uint256",
							"name": "debt",
							"type": "uint256"
						},
						{
							"internalType": "uint256",
							"name": "start",
							"type": "uint256"
						}
					],
					"internalType": "struct storeData.user",
					"name": "",
					"type": "tuple"
				}
			],
			"stateMutability": "view",
			"type": "function"
		},
		{
			"inputs": [],
			"name": "makePayment",
			"outputs": [],
			"stateMutability": "nonpayable",
			"type": "function"
		},
		{
			"inputs": [
				{
					"internalType": "address",
					"name": "_newOwner",
					"type": "address"
				}
			],
			"name": "setOwner",
			"outputs": [],
			"stateMutability": "nonpayable",
			"type": "function"
		},
		{
			"inputs": [
				{
					"internalType": "uint256",
					"name": "amount",
					"type": "uint256"
				}
			],
			"name": "withdrawBalance",
			"outputs": [],
			"stateMutability": "nonpayable",
			"type": "function"
		},
		{
			"inputs": [
				{
					"internalType": "uint256",
					"name": "amount",
					"type": "uint256"
				}
			],
			"name": "withdrawOwnerBalance",
			"outputs": [],
			"stateMutability": "nonpayable",
			"type": "function"
		}
	]
}